{
  "contractName": "DonationAndCustomization",
  "abi": [
    {
      "anonymous": false,
      "inputs": [
        {
          "indexed": true,
          "internalType": "address",
          "name": "owner",
          "type": "address"
        },
        {
          "indexed": true,
          "internalType": "address",
          "name": "spender",
          "type": "address"
        },
        {
          "indexed": false,
          "internalType": "uint256",
          "name": "value",
          "type": "uint256"
        }
      ],
      "name": "Approval",
      "type": "event"
    },
    {
      "anonymous": false,
      "inputs": [
        {
          "indexed": true,
          "internalType": "address",
          "name": "owner",
          "type": "address"
        },
        {
          "indexed": false,
          "internalType": "string",
          "name": "name",
          "type": "string"
        },
        {
          "indexed": false,
          "internalType": "uint256",
          "name": "clothes",
          "type": "uint256"
        },
        {
          "indexed": false,
          "internalType": "uint256",
          "name": "accessory",
          "type": "uint256"
        }
      ],
      "name": "CharacterCustomized",
      "type": "event"
    },
    {
      "anonymous": false,
      "inputs": [
        {
          "indexed": true,
          "internalType": "address",
          "name": "donor",
          "type": "address"
        },
        {
          "indexed": false,
          "internalType": "uint256",
          "name": "amount",
          "type": "uint256"
        }
      ],
      "name": "DonationReceived",
      "type": "event"
    },
    {
      "anonymous": false,
      "inputs": [
        {
          "indexed": true,
          "internalType": "address",
          "name": "from",
          "type": "address"
        },
        {
          "indexed": true,
          "internalType": "address",
          "name": "to",
          "type": "address"
        },
        {
          "indexed": false,
          "internalType": "uint256",
          "name": "value",
          "type": "uint256"
        }
      ],
      "name": "Transfer",
      "type": "event"
    },
    {
      "inputs": [
        {
          "internalType": "address",
          "name": "",
          "type": "address"
        },
        {
          "internalType": "address",
          "name": "",
          "type": "address"
        }
      ],
      "name": "allowance",
      "outputs": [
        {
          "internalType": "uint256",
          "name": "",
          "type": "uint256"
        }
      ],
      "stateMutability": "view",
      "type": "function"
    },
    {
      "inputs": [
        {
          "internalType": "address",
          "name": "",
          "type": "address"
        }
      ],
      "name": "balanceOf",
      "outputs": [
        {
          "internalType": "uint256",
          "name": "",
          "type": "uint256"
        }
      ],
      "stateMutability": "view",
      "type": "function"
    },
    {
      "inputs": [
        {
          "internalType": "address",
          "name": "",
          "type": "address"
        }
      ],
      "name": "characters",
      "outputs": [
        {
          "internalType": "string",
          "name": "name",
          "type": "string"
        },
        {
          "internalType": "uint256",
          "name": "clothes",
          "type": "uint256"
        },
        {
          "internalType": "uint256",
          "name": "accessory",
          "type": "uint256"
        }
      ],
      "stateMutability": "view",
      "type": "function"
    },
    {
      "inputs": [
        {
          "internalType": "address",
          "name": "",
          "type": "address"
        }
      ],
      "name": "donations",
      "outputs": [
        {
          "internalType": "uint256",
          "name": "",
          "type": "uint256"
        }
      ],
      "stateMutability": "view",
      "type": "function"
    },
    {
      "inputs": [
        {
          "internalType": "uint256",
          "name": "",
          "type": "uint256"
        }
      ],
      "name": "donors",
      "outputs": [
        {
          "internalType": "address",
          "name": "",
          "type": "address"
        }
      ],
      "stateMutability": "view",
      "type": "function"
    },
    {
      "inputs": [],
      "name": "donate",
      "outputs": [],
      "stateMutability": "payable",
      "type": "function"
    },
    {
      "inputs": [
        {
          "internalType": "string",
          "name": "name",
          "type": "string"
        },
        {
          "internalType": "uint256",
          "name": "clothes",
          "type": "uint256"
        },
        {
          "internalType": "uint256",
          "name": "accessory",
          "type": "uint256"
        }
      ],
      "name": "customizeCharacter",
      "outputs": [],
      "stateMutability": "nonpayable",
      "type": "function"
    },
    {
      "inputs": [
        {
          "internalType": "address",
          "name": "_spender",
          "type": "address"
        },
        {
          "internalType": "uint256",
          "name": "_value",
          "type": "uint256"
        }
      ],
      "name": "approve",
      "outputs": [
        {
          "internalType": "bool",
          "name": "success",
          "type": "bool"
        }
      ],
      "stateMutability": "nonpayable",
      "type": "function"
    },
    {
      "inputs": [
        {
          "internalType": "address",
          "name": "_from",
          "type": "address"
        },
        {
          "internalType": "address",
          "name": "_to",
          "type": "address"
        },
        {
          "internalType": "uint256",
          "name": "_value",
          "type": "uint256"
        }
      ],
      "name": "transferFrom",
      "outputs": [
        {
          "internalType": "bool",
          "name": "success",
          "type": "bool"
        }
      ],
      "stateMutability": "nonpayable",
      "type": "function"
    }
  ],
  "bytecode": "0x608060405234801561001057600080fd5b506114f5806100206000396000f3fe6080604052600436106100865760003560e01c806397c2114f1161005957806397c2114f1461017f578063a95938e6146101be578063cc6cb19a146101e7578063dd62ed3e14610224578063ed88c68e1461026157610086565b8063095ea7b31461008b57806323b872dd146100c85780634abfa1631461010557806370a0823114610142575b600080fd5b34801561009757600080fd5b506100b260048036038101906100ad9190610cb1565b61026b565b6040516100bf9190610d0c565b60405180910390f35b3480156100d457600080fd5b506100ef60048036038101906100ea9190610d27565b61035d565b6040516100fc9190610d0c565b60405180910390f35b34801561011157600080fd5b5061012c60048036038101906101279190610d7a565b610681565b6040516101399190610db6565b60405180910390f35b34801561014e57600080fd5b5061016960048036038101906101649190610dd1565b6106c0565b6040516101769190610e0d565b60405180910390f35b34801561018b57600080fd5b506101a660048036038101906101a19190610dd1565b6106d8565b6040516101b593929190610ec1565b60405180910390f35b3480156101ca57600080fd5b506101e560048036038101906101e09190611034565b61078a565b005b3480156101f357600080fd5b5061020e60048036038101906102099190610dd1565b610959565b60405161021b9190610e0d565b60405180910390f35b34801561023057600080fd5b5061024b600480360381019061024691906110a3565b610971565b6040516102589190610e0d565b60405180910390f35b610269610996565b005b600081600360003373ffffffffffffffffffffffffffffffffffffffff1673ffffffffffffffffffffffffffffffffffffffff16815260200190815260200160002060008573ffffffffffffffffffffffffffffffffffffffff1673ffffffffffffffffffffffffffffffffffffffff168152602001908152602001600020819055508273ffffffffffffffffffffffffffffffffffffffff163373ffffffffffffffffffffffffffffffffffffffff167f8c5be1e5ebec7d5bd14f71427d1e84f3dd0314c0f7b2291e5b200ac8c7c3b9258460405161034b9190610e0d565b60405180910390a36001905092915050565b60008073ffffffffffffffffffffffffffffffffffffffff168373ffffffffffffffffffffffffffffffffffffffff1614156103ce576040517f08c379a00000000000000000000000000000000000000000000000000000000081526004016103c59061112f565b60405180910390fd5b81600260008673ffffffffffffffffffffffffffffffffffffffff1673ffffffffffffffffffffffffffffffffffffffff168152602001908152602001600020541015610450576040517f08c379a00000000000000000000000000000000000000000000000000000000081526004016104479061119b565b60405180910390fd5b81600360008673ffffffffffffffffffffffffffffffffffffffff1673ffffffffffffffffffffffffffffffffffffffff16815260200190815260200160002060003373ffffffffffffffffffffffffffffffffffffffff1673ffffffffffffffffffffffffffffffffffffffff16815260200190815260200160002054101561050f576040517f08c379a000000000000000000000000000000000000000000000000000000000815260040161050690611207565b60405180910390fd5b81600260008673ffffffffffffffffffffffffffffffffffffffff1673ffffffffffffffffffffffffffffffffffffffff168152602001908152602001600020600082825461055e9190611256565b9250508190555081600260008573ffffffffffffffffffffffffffffffffffffffff1673ffffffffffffffffffffffffffffffffffffffff16815260200190815260200160002060008282546105b4919061128a565b9250508190555081600160008673ffffffffffffffffffffffffffffffffffffffff1673ffffffffffffffffffffffffffffffffffffffff168152602001908152602001600020600082825461060a919061128a565b925050819055508273ffffffffffffffffffffffffffffffffffffffff168473ffffffffffffffffffffffffffffffffffffffff167fddf252ad1be2c89b69c2b068fc378daa952ba7f163c4a11628f55a4df523b3ef8460405161066e9190610e0d565b60405180910390a3600190509392505050565b6000818154811061069157600080fd5b906000526020600020016000915054906101000a900473ffffffffffffffffffffffffffffffffffffffff1681565b60026020528060005260406000206000915090505481565b60046020528060005260406000206000915090508060000180546106fb9061130f565b80601f01602080910402602001604051908101604052809291908181526020018280546107279061130f565b80156107745780601f1061074957610100808354040283529160200191610774565b820191906000526020600020905b81548152906001019060200180831161075757829003601f168201915b5050505050908060010154908060020154905083565b6107948282610b2a565b600160003373ffffffffffffffffffffffffffffffffffffffff1673ffffffffffffffffffffffffffffffffffffffff168152602001908152602001600020541015610815576040517f08c379a000000000000000000000000000000000000000000000000000000000815260040161080c906113b3565b60405180910390fd5b604051806060016040528084815260200183815260200182815250600460003373ffffffffffffffffffffffffffffffffffffffff1673ffffffffffffffffffffffffffffffffffffffff168152602001908152602001600020600082015181600001908051906020019061088b929190610b66565b5060208201518160010155604082015181600201559050506108ad8282610b2a565b600160003373ffffffffffffffffffffffffffffffffffffffff1673ffffffffffffffffffffffffffffffffffffffff16815260200190815260200160002060008282546108fb9190611256565b925050819055503373ffffffffffffffffffffffffffffffffffffffff167f0fa70e7a5dc76261b5035f698cff8f1eec8f79a2de4bcb75612e67ebde5e5d0d84848460405161094c93929190610ec1565b60405180910390a2505050565b60016020528060005260406000206000915090505481565b6003602052816000526040600020602052806000526040600020600091509150505481565b600034116109d9576040517f08c379a00000000000000000000000000000000000000000000000000000000081526004016109d090611445565b60405180910390fd5b34600160003373ffffffffffffffffffffffffffffffffffffffff1673ffffffffffffffffffffffffffffffffffffffff1681526020019081526020016000206000828254610a28919061128a565b9250508190555034600160003373ffffffffffffffffffffffffffffffffffffffff1673ffffffffffffffffffffffffffffffffffffffff168152602001908152602001600020541415610ada576000339080600181540180825580915050600190039060005260206000200160009091909190916101000a81548173ffffffffffffffffffffffffffffffffffffffff021916908373ffffffffffffffffffffffffffffffffffffffff1602179055505b3373ffffffffffffffffffffffffffffffffffffffff167f264f630d9efa0d07053a31163641d9fcc0adafc9d9e76f1c37c2ce3a558d2c5234604051610b209190610e0d565b60405180910390a2565b6000670de0b6b3a764000082610b409190611465565b670de0b6b3a764000084610b549190611465565b610b5e919061128a565b905092915050565b828054610b729061130f565b90600052602060002090601f016020900481019282610b945760008555610bdb565b82601f10610bad57805160ff1916838001178555610bdb565b82800160010185558215610bdb579182015b82811115610bda578251825591602001919060010190610bbf565b5b509050610be89190610bec565b5090565b5b80821115610c05576000816000905550600101610bed565b5090565b6000604051905090565b600080fd5b600080fd5b600073ffffffffffffffffffffffffffffffffffffffff82169050919050565b6000610c4882610c1d565b9050919050565b610c5881610c3d565b8114610c6357600080fd5b50565b600081359050610c7581610c4f565b92915050565b6000819050919050565b610c8e81610c7b565b8114610c9957600080fd5b50565b600081359050610cab81610c85565b92915050565b60008060408385031215610cc857610cc7610c13565b5b6000610cd685828601610c66565b9250506020610ce785828601610c9c565b9150509250929050565b60008115159050919050565b610d0681610cf1565b82525050565b6000602082019050610d216000830184610cfd565b92915050565b600080600060608486031215610d4057610d3f610c13565b5b6000610d4e86828701610c66565b9350506020610d5f86828701610c66565b9250506040610d7086828701610c9c565b9150509250925092565b600060208284031215610d9057610d8f610c13565b5b6000610d9e84828501610c9c565b91505092915050565b610db081610c3d565b82525050565b6000602082019050610dcb6000830184610da7565b92915050565b600060208284031215610de757610de6610c13565b5b6000610df584828501610c66565b91505092915050565b610e0781610c7b565b82525050565b6000602082019050610e226000830184610dfe565b92915050565b600081519050919050565b600082825260208201905092915050565b60005b83811015610e62578082015181840152602081019050610e47565b83811115610e71576000848401525b50505050565b6000601f19601f8301169050919050565b6000610e9382610e28565b610e9d8185610e33565b9350610ead818560208601610e44565b610eb681610e77565b840191505092915050565b60006060820190508181036000830152610edb8186610e88565b9050610eea6020830185610dfe565b610ef76040830184610dfe565b949350505050565b600080fd5b600080fd5b7f4e487b7100000000000000000000000000000000000000000000000000000000600052604160045260246000fd5b610f4182610e77565b810181811067ffffffffffffffff82111715610f6057610f5f610f09565b5b80604052505050565b6000610f73610c09565b9050610f7f8282610f38565b919050565b600067ffffffffffffffff821115610f9f57610f9e610f09565b5b610fa882610e77565b9050602081019050919050565b82818337600083830152505050565b6000610fd7610fd284610f84565b610f69565b905082815260208101848484011115610ff357610ff2610f04565b5b610ffe848285610fb5565b509392505050565b600082601f83011261101b5761101a610eff565b5b813561102b848260208601610fc4565b91505092915050565b60008060006060848603121561104d5761104c610c13565b5b600084013567ffffffffffffffff81111561106b5761106a610c18565b5b61107786828701611006565b935050602061108886828701610c9c565b925050604061109986828701610c9c565b9150509250925092565b600080604083850312156110ba576110b9610c13565b5b60006110c885828601610c66565b92505060206110d985828601610c66565b9150509250929050565b7f496e76616c696420616464726573730000000000000000000000000000000000600082015250565b6000611119600f83610e33565b9150611124826110e3565b602082019050919050565b600060208201905081810360008301526111488161110c565b9050919050565b7f496e73756666696369656e742062616c616e6365000000000000000000000000600082015250565b6000611185601483610e33565b91506111908261114f565b602082019050919050565b600060208201905081810360008301526111b481611178565b9050919050565b7f4e6f7420616c6c6f77656420746f207370656e64207468697320616d6f756e74600082015250565b60006111f1602083610e33565b91506111fc826111bb565b602082019050919050565b60006020820190508181036000830152611220816111e4565b9050919050565b7f4e487b7100000000000000000000000000000000000000000000000000000000600052601160045260246000fd5b600061126182610c7b565b915061126c83610c7b565b92508282101561127f5761127e611227565b5b828203905092915050565b600061129582610c7b565b91506112a083610c7b565b9250827fffffffffffffffffffffffffffffffffffffffffffffffffffffffffffffffff038211156112d5576112d4611227565b5b828201905092915050565b7f4e487b7100000000000000000000000000000000000000000000000000000000600052602260045260246000fd5b6000600282049050600182168061132757607f821691505b6020821081141561133b5761133a6112e0565b5b50919050565b7f496e73756666696369656e7420646f6e6174696f6e20746f20637573746f6d6960008201527f7a6520796f7572206368617261637465722e0000000000000000000000000000602082015250565b600061139d603283610e33565b91506113a882611341565b604082019050919050565b600060208201905081810360008301526113cc81611390565b9050919050565b7f596f75206d7573742073656e6420736f6d6520657468657220746f20646f6e6160008201527f7465000000000000000000000000000000000000000000000000000000000000602082015250565b600061142f602283610e33565b915061143a826113d3565b604082019050919050565b6000602082019050818103600083015261145e81611422565b9050919050565b600061147082610c7b565b915061147b83610c7b565b9250817fffffffffffffffffffffffffffffffffffffffffffffffffffffffffffffffff04831182151516156114b4576114b3611227565b5b82820290509291505056fea26469706673582212205c96b97be75a2755a962cd3b508324925179f8fcd4eb05ed743eda45f5e512bb64736f6c63430008090033",
  "immutableReferences": {},
  "source": "// SPDX-License-Identifier: MIT\r\npragma solidity ^0.8.9;\r\n\r\ncontract DonationAndCustomization {\r\n    //   \r\n    event DonationReceived(address indexed donor, uint256 amount);\r\n\r\n    //        \r\n    event CharacterCustomized(address indexed owner, string name, uint256 clothes, uint accessory);\r\n\r\n    // ERC-20  Transfer  \r\n    event Transfer(address indexed from, address indexed to, uint256 value);\r\n\r\n    // ERC-20  Approval  \r\n    event Approval(address indexed owner, address indexed spender, uint256 value);\r\n\r\n    //     \r\n    address[] public donors;\r\n\r\n    //      \r\n    mapping(address => uint256) public donations;\r\n\r\n    //mapping(address => Character) public\r\n\r\n    // ,   \r\n    mapping(address => uint256) public balanceOf;\r\n    mapping(address => mapping(address => uint256)) public allowance;\r\n\r\n    //     \r\n    struct Character {\r\n        string name;\r\n        uint256 clothes;\r\n        uint256 accessory;\r\n        \r\n    }\r\n\r\n    //        .\r\n    mapping(address => Character) public characters;\r\n\r\n    //   \r\n    function donate() public payable {\r\n        //  0    .\r\n        require(msg.value > 0 , \"You must send some ether to donate\");\r\n\r\n        //   \r\n        donations[msg.sender] += msg.value;\r\n\r\n        //    , donors  \r\n        if(donations[msg.sender] == msg.value) {\r\n            donors.push(msg.sender);\r\n        }\r\n\r\n        //  \r\n        emit DonationReceived(msg.sender, msg.value);\r\n    }\r\n\r\n    //    \r\n    function customizeCharacter (\r\n        string memory name,\r\n        uint256 clothes,\r\n        uint256 accessory\r\n        \r\n    ) public {\r\n        //       \r\n        require(donations[msg.sender] >= computeCustomizationCost(clothes, accessory), \"Insufficient donation to customize your character.\");\r\n\r\n        //  \r\n        characters[msg.sender] =Character(name, clothes, accessory);\r\n\r\n        //    \r\n        donations[msg.sender] -= computeCustomizationCost(clothes, accessory);\r\n\r\n        //    \r\n         emit CharacterCustomized(msg.sender, name, clothes, accessory);\r\n    }\r\n\r\n    //      .\r\n    function computeCustomizationCost(\r\n        uint256 clothes,\r\n        uint256 accessory\r\n    ) internal pure returns (uint256) {\r\n        \r\n        return clothes * 1 ether +  accessory * 1 ether;\r\n    }\r\n\r\n    // ERC-20    .\r\n    function approve(address _spender, uint256 _value) public returns (bool success) {\r\n        allowance[msg.sender][_spender] = _value;\r\n        emit Approval(msg.sender, _spender, _value);\r\n        return true;\r\n    }\r\n\r\n    // ERC-20           \r\n    function transferFrom(\r\n        address _from,\r\n        address _to,\r\n        uint256 _value\r\n    ) public returns (bool success) {\r\n        require(_to != address(0), \"Invalid address\");\r\n        require(balanceOf[_from] >= _value, \"Insufficient balance\");\r\n        require(allowance[_from][msg.sender] >= _value, \"Not allowed to spend this amount\");\r\n\r\n        balanceOf[_from] -= _value;\r\n        balanceOf[_to] += _value;\r\n\r\n        //   \r\n        donations[_from] += _value;\r\n\r\n        emit Transfer(_from, _to, _value);\r\n        return true;\r\n    }\r\n}",
  "sourcePath": "C:\\Users\\user\\Desktop\\bob project\\smart-contract\\contracts\\DonationAndCustomization.sol",
  "compiler": {
    "name": "solc",
    "version": "0.8.9+commit.e5eed63a.Emscripten.clang"
  },
  "schemaVersion": "3.4.14",
  "updatedAt": "2023-07-31T11:51:51.455Z",
  "devdoc": {
    "kind": "dev",
    "methods": {},
    "version": 1
  },
  "userdoc": {
    "kind": "user",
    "methods": {},
    "version": 1
  }
}