{
  "contractName": "Test",
  "abi": [
    {
      "inputs": [],
      "stateMutability": "nonpayable",
      "type": "constructor"
    },
    {
      "anonymous": false,
      "inputs": [
        {
          "indexed": true,
          "internalType": "address",
          "name": "donator",
          "type": "address"
        },
        {
          "indexed": false,
          "internalType": "uint256",
          "name": "donation",
          "type": "uint256"
        }
      ],
      "name": "DONATION",
      "type": "event"
    },
    {
      "inputs": [
        {
          "internalType": "address",
          "name": "",
          "type": "address"
        }
      ],
      "name": "donators",
      "outputs": [
        {
          "internalType": "uint256",
          "name": "",
          "type": "uint256"
        }
      ],
      "stateMutability": "view",
      "type": "function",
      "constant": true
    },
    {
      "inputs": [
        {
          "internalType": "uint256",
          "name": "",
          "type": "uint256"
        }
      ],
      "name": "donors",
      "outputs": [
        {
          "internalType": "address payable",
          "name": "donator",
          "type": "address"
        },
        {
          "internalType": "uint256",
          "name": "donation",
          "type": "uint256"
        }
      ],
      "stateMutability": "view",
      "type": "function",
      "constant": true
    },
    {
      "inputs": [],
      "name": "donate",
      "outputs": [],
      "stateMutability": "payable",
      "type": "function",
      "payable": true
    },
    {
      "inputs": [
        {
          "internalType": "address",
          "name": "donator",
          "type": "address"
        }
      ],
      "name": "getDonators",
      "outputs": [
        {
          "internalType": "uint256",
          "name": "result",
          "type": "uint256"
        }
      ],
      "stateMutability": "view",
      "type": "function",
      "constant": true
    },
    {
      "inputs": [],
      "name": "getTotalDonations",
      "outputs": [
        {
          "internalType": "uint256",
          "name": "result",
          "type": "uint256"
        }
      ],
      "stateMutability": "view",
      "type": "function",
      "constant": true
    }
  ],
  "bytecode": "0x608060405234801561001057600080fd5b506000339050806000806101000a81548173ffffffffffffffffffffffffffffffffffffffff021916908373ffffffffffffffffffffffffffffffffffffffff16021790555050610817806100666000396000f3fe60806040526004361061004a5760003560e01c80634abfa1631461004f578063777c658f1461008d578063a6841d04146100b8578063d24f8cdd146100f5578063ed88c68e14610132575b600080fd5b34801561005b57600080fd5b5061007660048036038101906100719190610521565b61013c565b60405161008492919061059e565b60405180910390f35b34801561009957600080fd5b506100a2610190565b6040516100af91906105c7565b60405180910390f35b3480156100c457600080fd5b506100df60048036038101906100da9190610620565b61019a565b6040516100ec91906105c7565b60405180910390f35b34801561010157600080fd5b5061011c60048036038101906101179190610620565b61026a565b60405161012991906105c7565b60405180910390f35b61013a610282565b005b6002818154811061014c57600080fd5b90600052602060002090600202016000915090508060000160009054906101000a900473ffffffffffffffffffffffffffffffffffffffff16908060010154905082565b6000600154905090565b600080600360008473ffffffffffffffffffffffffffffffffffffffff1673ffffffffffffffffffffffffffffffffffffffff168152602001908152602001600020541161021d576040517f08c379a0000000000000000000000000000000000000000000000000000000008152600401610214906106aa565b60405180910390fd5b6000600360008473ffffffffffffffffffffffffffffffffffffffff1673ffffffffffffffffffffffffffffffffffffffff16815260200190815260200160002054905080915050919050565b60036020528060005260406000206000915090505481565b600034116102c5576040517f08c379a00000000000000000000000000000000000000000000000000000000081526004016102bc9061073c565b60405180910390fd5b34600360003373ffffffffffffffffffffffffffffffffffffffff1673ffffffffffffffffffffffffffffffffffffffff1681526020019081526020016000206000828254610314919061078b565b9250508190555034600360003373ffffffffffffffffffffffffffffffffffffffff1673ffffffffffffffffffffffffffffffffffffffff16815260200190815260200160002054141561044d5761036a6104b6565b60008054906101000a900473ffffffffffffffffffffffffffffffffffffffff16816000019073ffffffffffffffffffffffffffffffffffffffff16908173ffffffffffffffffffffffffffffffffffffffff168152505034816020018181525050600281908060018154018082558091505060019003906000526020600020906002020160009091909190915060008201518160000160006101000a81548173ffffffffffffffffffffffffffffffffffffffff021916908373ffffffffffffffffffffffffffffffffffffffff160217905550602082015181600101555050505b346001600082825461045f919061078b565b925050819055503373ffffffffffffffffffffffffffffffffffffffff167f2d4c80fe532a63706e1e7f9411e327a7cf921da46b1d723c95d918e7262fc148346040516104ac91906105c7565b60405180910390a2565b6040518060400160405280600073ffffffffffffffffffffffffffffffffffffffff168152602001600081525090565b600080fd5b6000819050919050565b6104fe816104eb565b811461050957600080fd5b50565b60008135905061051b816104f5565b92915050565b600060208284031215610537576105366104e6565b5b60006105458482850161050c565b91505092915050565b600073ffffffffffffffffffffffffffffffffffffffff82169050919050565b60006105798261054e565b9050919050565b6105898161056e565b82525050565b610598816104eb565b82525050565b60006040820190506105b36000830185610580565b6105c0602083018461058f565b9392505050565b60006020820190506105dc600083018461058f565b92915050565b60006105ed8261054e565b9050919050565b6105fd816105e2565b811461060857600080fd5b50565b60008135905061061a816105f4565b92915050565b600060208284031215610636576106356104e6565b5b60006106448482850161060b565b91505092915050565b600082825260208201905092915050565b7f54686973206163636f756e7420646964206e6f7420646f6e6174650000000000600082015250565b6000610694601b8361064d565b915061069f8261065e565b602082019050919050565b600060208201905081810360008301526106c381610687565b9050919050565b7f596f75206d7573742073656e6420736f6d6520657468657220746f20646f6e6160008201527f7465000000000000000000000000000000000000000000000000000000000000602082015250565b600061072660228361064d565b9150610731826106ca565b604082019050919050565b6000602082019050818103600083015261075581610719565b9050919050565b7f4e487b7100000000000000000000000000000000000000000000000000000000600052601160045260246000fd5b6000610796826104eb565b91506107a1836104eb565b9250827fffffffffffffffffffffffffffffffffffffffffffffffffffffffffffffffff038211156107d6576107d561075c565b5b82820190509291505056fea26469706673582212207fcf138777fb1d015db8d8e7ba762eb12189a97192995ea55fb485ddcaa8120f64736f6c63430008090033",
  "immutableReferences": {},
  "source": " // SPDX-License-Identifier: MIT\r\npragma solidity ^0.8.9;\r\n\r\ncontract Test{\r\n    struct DonatorInfo{\r\n        address payable donator;    // \r\n        uint256 donation;   // \r\n    }\r\n\r\n    address payable owner;\r\n    uint256 private _totalDonations;\r\n    // address constant internal contractAddr ; \r\n\r\n    DonatorInfo[] public donors;    \r\n    mapping(address => uint256) public donators;\r\n\r\n    event DONATION(address indexed donator, uint256 donation);\r\n\r\n    constructor() {\r\n        address sender = msg.sender;\r\n        owner = payable(sender);\r\n    }\r\n\r\n    function donate() public payable {\r\n        //  0 ETH \r\n        require(msg.value > 0, 'You must send some ether to donate');\r\n        //   \r\n        donators[msg.sender] += msg.value;\r\n        //    , donors  \r\n        if(donators[msg.sender] == msg.value){\r\n            DonatorInfo memory d;\r\n            d.donator = owner;\r\n            d.donation = msg.value;\r\n            donors.push(d);\r\n        }\r\n\r\n        _totalDonations += msg.value;\r\n\r\n        emit DONATION(msg.sender, msg.value);\r\n    }\r\n\r\n    function getDonators(address donator) public view returns(uint256 result){\r\n        require(donators[donator] > 0, 'This account did not donate');\r\n        uint256 donation = donators[donator];\r\n        return donation;\r\n    }\r\n\r\n    function getTotalDonations() public view returns(uint256 result) {\r\n        return _totalDonations;\r\n    }\r\n\r\n\r\n}",
  "sourcePath": "C:\\Users\\user\\Desktop\\bob project\\smart-contract\\contracts\\Test.sol",
  "compiler": {
    "name": "solc",
    "version": "0.8.9+commit.e5eed63a.Emscripten.clang"
  },
  "schemaVersion": "3.4.14",
  "updatedAt": "2023-07-31T11:51:54.405Z",
  "networkType": "ethereum",
  "devdoc": {
    "kind": "dev",
    "methods": {},
    "version": 1
  },
  "userdoc": {
    "kind": "user",
    "methods": {},
    "version": 1
  }
}