{
  "contractName": "Test",
  "abi": [
    {
      "inputs": [],
      "stateMutability": "nonpayable",
      "type": "constructor"
    },
    {
      "anonymous": false,
      "inputs": [
        {
          "indexed": true,
          "internalType": "address",
          "name": "donator",
          "type": "address"
        },
        {
          "indexed": false,
          "internalType": "uint256",
          "name": "GC",
          "type": "uint256"
        }
      ],
      "name": "CREATEGC",
      "type": "event"
    },
    {
      "anonymous": false,
      "inputs": [
        {
          "indexed": true,
          "internalType": "address",
          "name": "donator",
          "type": "address"
        },
        {
          "indexed": false,
          "internalType": "uint256",
          "name": "donation",
          "type": "uint256"
        }
      ],
      "name": "DONATION",
      "type": "event"
    },
    {
      "inputs": [
        {
          "internalType": "address",
          "name": "",
          "type": "address"
        }
      ],
      "name": "GC",
      "outputs": [
        {
          "internalType": "uint256",
          "name": "",
          "type": "uint256"
        }
      ],
      "stateMutability": "view",
      "type": "function",
      "constant": true
    },
    {
      "inputs": [
        {
          "internalType": "uint256",
          "name": "",
          "type": "uint256"
        }
      ],
      "name": "GCs",
      "outputs": [
        {
          "internalType": "uint256",
          "name": "",
          "type": "uint256"
        }
      ],
      "stateMutability": "view",
      "type": "function",
      "constant": true
    },
    {
      "inputs": [
        {
          "internalType": "address",
          "name": "",
          "type": "address"
        }
      ],
      "name": "donationTimes",
      "outputs": [
        {
          "internalType": "uint256",
          "name": "",
          "type": "uint256"
        }
      ],
      "stateMutability": "view",
      "type": "function",
      "constant": true
    },
    {
      "inputs": [
        {
          "internalType": "address",
          "name": "",
          "type": "address"
        }
      ],
      "name": "donators",
      "outputs": [
        {
          "internalType": "uint256",
          "name": "",
          "type": "uint256"
        }
      ],
      "stateMutability": "view",
      "type": "function",
      "constant": true
    },
    {
      "inputs": [
        {
          "internalType": "uint256",
          "name": "",
          "type": "uint256"
        }
      ],
      "name": "donors",
      "outputs": [
        {
          "internalType": "address payable",
          "name": "donator",
          "type": "address"
        },
        {
          "internalType": "uint256",
          "name": "donation",
          "type": "uint256"
        },
        {
          "internalType": "uint256",
          "name": "donatiotime",
          "type": "uint256"
        }
      ],
      "stateMutability": "view",
      "type": "function",
      "constant": true
    },
    {
      "inputs": [
        {
          "internalType": "uint256",
          "name": "",
          "type": "uint256"
        }
      ],
      "name": "items",
      "outputs": [
        {
          "internalType": "uint256",
          "name": "price",
          "type": "uint256"
        },
        {
          "internalType": "bool",
          "name": "purchased",
          "type": "bool"
        }
      ],
      "stateMutability": "view",
      "type": "function",
      "constant": true
    },
    {
      "inputs": [],
      "name": "donate",
      "outputs": [],
      "stateMutability": "payable",
      "type": "function",
      "payable": true
    },
    {
      "inputs": [
        {
          "internalType": "address",
          "name": "donator",
          "type": "address"
        }
      ],
      "name": "getDonators",
      "outputs": [
        {
          "internalType": "uint256",
          "name": "result",
          "type": "uint256"
        }
      ],
      "stateMutability": "view",
      "type": "function",
      "constant": true
    },
    {
      "inputs": [
        {
          "internalType": "address",
          "name": "donator",
          "type": "address"
        }
      ],
      "name": "getDanatorTime",
      "outputs": [
        {
          "internalType": "uint256",
          "name": "result",
          "type": "uint256"
        }
      ],
      "stateMutability": "view",
      "type": "function",
      "constant": true
    },
    {
      "inputs": [],
      "name": "getDonors",
      "outputs": [
        {
          "internalType": "uint256",
          "name": "result",
          "type": "uint256"
        }
      ],
      "stateMutability": "view",
      "type": "function",
      "constant": true
    },
    {
      "inputs": [],
      "name": "getTotalDonations",
      "outputs": [
        {
          "internalType": "uint256",
          "name": "result",
          "type": "uint256"
        }
      ],
      "stateMutability": "view",
      "type": "function",
      "constant": true
    },
    {
      "inputs": [
        {
          "internalType": "address",
          "name": "donator",
          "type": "address"
        }
      ],
      "name": "createGC",
      "outputs": [],
      "stateMutability": "nonpayable",
      "type": "function"
    },
    {
      "inputs": [
        {
          "internalType": "address",
          "name": "donator",
          "type": "address"
        }
      ],
      "name": "getGC",
      "outputs": [
        {
          "internalType": "uint256",
          "name": "result",
          "type": "uint256"
        }
      ],
      "stateMutability": "view",
      "type": "function",
      "constant": true
    },
    {
      "inputs": [
        {
          "internalType": "uint256",
          "name": "itemPrice",
          "type": "uint256"
        }
      ],
      "name": "createItem",
      "outputs": [],
      "stateMutability": "nonpayable",
      "type": "function"
    },
    {
      "inputs": [
        {
          "internalType": "address",
          "name": "donator",
          "type": "address"
        },
        {
          "internalType": "uint256",
          "name": "itemId",
          "type": "uint256"
        }
      ],
      "name": "buyItem",
      "outputs": [],
      "stateMutability": "nonpayable",
      "type": "function"
    }
  ],
  "bytecode": "0x608060405260006004554260055534801561001957600080fd5b506000339050806000806101000a81548173ffffffffffffffffffffffffffffffffffffffff021916908373ffffffffffffffffffffffffffffffffffffffff160217905550506113428061006f6000396000f3fe6080604052600436106100e85760003560e01c8063a6841d041161008a578063d24f8cdd11610059578063d24f8cdd14610343578063d7a5d5d314610380578063ed88c68e146103a9578063febc7191146103b3576100e8565b8063a6841d041461024e578063bfb231d21461028b578063c48e7c71146102c9578063cb2c741a14610306576100e8565b8063777c658f116100c6578063777c658f146101925780638709fed9146101bd57806396f300d4146101fa5780639f37092a14610225576100e8565b80630d47a279146100ed5780634abfa1631461012a5780637096960814610169575b600080fd5b3480156100f957600080fd5b50610114600480360381019061010f9190610d99565b6103f0565b6040516101219190610dd5565b60405180910390f35b34801561013657600080fd5b50610151600480360381019061014c9190610d99565b610414565b60405161016093929190610e31565b60405180910390f35b34801561017557600080fd5b50610190600480360381019061018b9190610ea6565b61046e565b005b34801561019e57600080fd5b506101a76105a5565b6040516101b49190610dd5565b60405180910390f35b3480156101c957600080fd5b506101e460048036038101906101df9190610ea6565b6105af565b6040516101f19190610dd5565b60405180910390f35b34801561020657600080fd5b5061020f6105f8565b60405161021c9190610dd5565b60405180910390f35b34801561023157600080fd5b5061024c60048036038101906102479190610ed3565b61060a565b005b34801561025a57600080fd5b5061027560048036038101906102709190610ea6565b610759565b6040516102829190610dd5565b60405180910390f35b34801561029757600080fd5b506102b260048036038101906102ad9190610d99565b610829565b6040516102c0929190610f2e565b60405180910390f35b3480156102d557600080fd5b506102f060048036038101906102eb9190610ea6565b61085a565b6040516102fd9190610dd5565b60405180910390f35b34801561031257600080fd5b5061032d60048036038101906103289190610ea6565b610872565b60405161033a9190610dd5565b60405180910390f35b34801561034f57600080fd5b5061036a60048036038101906103659190610ea6565b61093c565b6040516103779190610dd5565b60405180910390f35b34801561038c57600080fd5b506103a760048036038101906103a29190610d99565b610954565b005b6103b16109c5565b005b3480156103bf57600080fd5b506103da60048036038101906103d59190610ea6565b610c55565b6040516103e79190610dd5565b60405180910390f35b6003818154811061040057600080fd5b906000526020600020016000915090505481565b6002818154811061042457600080fd5b90600052602060002090600302016000915090508060000160009054906101000a900473ffffffffffffffffffffffffffffffffffffffff16908060010154908060020154905083565b6000600660008373ffffffffffffffffffffffffffffffffffffffff1673ffffffffffffffffffffffffffffffffffffffff16815260200190815260200160002054116104f0576040517f08c379a00000000000000000000000000000000000000000000000000000000081526004016104e790610fb4565b60405180910390fd5b60006104fb82610c6d565b905080600760008473ffffffffffffffffffffffffffffffffffffffff1673ffffffffffffffffffffffffffffffffffffffff168152602001908152602001600020600082825461054c9190611003565b925050819055508173ffffffffffffffffffffffffffffffffffffffff167fe84953d74eb42697c379a79176e65b465c6d5f9f08e6c1429ce3b22e7c07af7d826040516105999190610dd5565b60405180910390a25050565b6000600154905090565b6000600960008373ffffffffffffffffffffffffffffffffffffffff1673ffffffffffffffffffffffffffffffffffffffff168152602001908152602001600020549050919050565b60008060028054905090508091505090565b6000600760008473ffffffffffffffffffffffffffffffffffffffff1673ffffffffffffffffffffffffffffffffffffffff168152602001908152602001600020541161068c576040517f08c379a0000000000000000000000000000000000000000000000000000000008152600401610683906110a5565b60405180910390fd5b60006008600083815260200190815260200160002090508060000154600760008573ffffffffffffffffffffffffffffffffffffffff1673ffffffffffffffffffffffffffffffffffffffff168152602001908152602001600020541015610729576040517f08c379a000000000000000000000000000000000000000000000000000000000815260040161072090611111565b60405180910390fd5b610737838260000154610ccd565b60018160010160006101000a81548160ff021916908315150217905550505050565b600080600660008473ffffffffffffffffffffffffffffffffffffffff1673ffffffffffffffffffffffffffffffffffffffff16815260200190815260200160002054116107dc576040517f08c379a00000000000000000000000000000000000000000000000000000000081526004016107d39061117d565b60405180910390fd5b6000600660008473ffffffffffffffffffffffffffffffffffffffff1673ffffffffffffffffffffffffffffffffffffffff16815260200190815260200160002054905080915050919050565b60086020528060005260406000206000915090508060000154908060010160009054906101000a900460ff16905082565b60096020528060005260406000206000915090505481565b600080600760008473ffffffffffffffffffffffffffffffffffffffff1673ffffffffffffffffffffffffffffffffffffffff16815260200190815260200160002054116108f5576040517f08c379a00000000000000000000000000000000000000000000000000000000081526004016108ec906110a5565b60405180910390fd5b600760008373ffffffffffffffffffffffffffffffffffffffff1673ffffffffffffffffffffffffffffffffffffffff168152602001908152602001600020549050919050565b60066020528060005260406000206000915090505481565b60405180604001604052808281526020016000151581525060086000600460008154809291906109839061119d565b9190505581526020019081526020016000206000820151816000015560208201518160010160006101000a81548160ff02191690831515021790555090505050565b60003411610a08576040517f08c379a00000000000000000000000000000000000000000000000000000000081526004016109ff90611258565b60405180910390fd5b34600660003373ffffffffffffffffffffffffffffffffffffffff1673ffffffffffffffffffffffffffffffffffffffff1681526020019081526020016000206000828254610a579190611003565b92505081905550600554600960003373ffffffffffffffffffffffffffffffffffffffff1673ffffffffffffffffffffffffffffffffffffffff1681526020019081526020016000208190555034600660003373ffffffffffffffffffffffffffffffffffffffff1673ffffffffffffffffffffffffffffffffffffffff168152602001908152602001600020541415610bec57610af3610d27565b60008054906101000a900473ffffffffffffffffffffffffffffffffffffffff16816000019073ffffffffffffffffffffffffffffffffffffffff16908173ffffffffffffffffffffffffffffffffffffffff168152505034816020018181525050600554816040018181525050600281908060018154018082558091505060019003906000526020600020906003020160009091909190915060008201518160000160006101000a81548173ffffffffffffffffffffffffffffffffffffffff021916908373ffffffffffffffffffffffffffffffffffffffff16021790555060208201518160010155604082015181600201555050505b3460016000828254610bfe9190611003565b925050819055503373ffffffffffffffffffffffffffffffffffffffff167f2d4c80fe532a63706e1e7f9411e327a7cf921da46b1d723c95d918e7262fc14834604051610c4b9190610dd5565b60405180910390a2565b60076020528060005260406000206000915090505481565b600080600660008473ffffffffffffffffffffffffffffffffffffffff1673ffffffffffffffffffffffffffffffffffffffff1681526020019081526020016000205490506000600a82610cc191906112a7565b90508092505050919050565b80600760008473ffffffffffffffffffffffffffffffffffffffff1673ffffffffffffffffffffffffffffffffffffffff1681526020019081526020016000206000828254610d1c91906112d8565b925050819055505050565b6040518060600160405280600073ffffffffffffffffffffffffffffffffffffffff16815260200160008152602001600081525090565b600080fd5b6000819050919050565b610d7681610d63565b8114610d8157600080fd5b50565b600081359050610d9381610d6d565b92915050565b600060208284031215610daf57610dae610d5e565b5b6000610dbd84828501610d84565b91505092915050565b610dcf81610d63565b82525050565b6000602082019050610dea6000830184610dc6565b92915050565b600073ffffffffffffffffffffffffffffffffffffffff82169050919050565b6000610e1b82610df0565b9050919050565b610e2b81610e10565b82525050565b6000606082019050610e466000830186610e22565b610e536020830185610dc6565b610e606040830184610dc6565b949350505050565b6000610e7382610df0565b9050919050565b610e8381610e68565b8114610e8e57600080fd5b50565b600081359050610ea081610e7a565b92915050565b600060208284031215610ebc57610ebb610d5e565b5b6000610eca84828501610e91565b91505092915050565b60008060408385031215610eea57610ee9610d5e565b5b6000610ef885828601610e91565b9250506020610f0985828601610d84565b9150509250929050565b60008115159050919050565b610f2881610f13565b82525050565b6000604082019050610f436000830185610dc6565b610f506020830184610f1f565b9392505050565b600082825260208201905092915050565b7f596f7520646f6e74277420726563656976652047434f494e2000000000000000600082015250565b6000610f9e601983610f57565b9150610fa982610f68565b602082019050919050565b60006020820190508181036000830152610fcd81610f91565b9050919050565b7f4e487b7100000000000000000000000000000000000000000000000000000000600052601160045260246000fd5b600061100e82610d63565b915061101983610d63565b9250827fffffffffffffffffffffffffffffffffffffffffffffffffffffffffffffffff0382111561104e5761104d610fd4565b5b828201905092915050565b7f596f7520646f6e277420686176652047434f494e2e0000000000000000000000600082015250565b600061108f601583610f57565b915061109a82611059565b602082019050919050565b600060208201905081810360008301526110be81611082565b9050919050565b7f4e6f7420656e6f75676820474320746f206275792074686973206974656d0000600082015250565b60006110fb601e83610f57565b9150611106826110c5565b602082019050919050565b6000602082019050818103600083015261112a816110ee565b9050919050565b7f54686973206163636f756e7420646964206e6f7420646f6e6174650000000000600082015250565b6000611167601b83610f57565b915061117282611131565b602082019050919050565b600060208201905081810360008301526111968161115a565b9050919050565b60006111a882610d63565b91507fffffffffffffffffffffffffffffffffffffffffffffffffffffffffffffffff8214156111db576111da610fd4565b5b600182019050919050565b7f596f75206d7573742073656e6420736f6d6520657468657220746f20646f6e6160008201527f7465000000000000000000000000000000000000000000000000000000000000602082015250565b6000611242602283610f57565b915061124d826111e6565b604082019050919050565b6000602082019050818103600083015261127181611235565b9050919050565b7f4e487b7100000000000000000000000000000000000000000000000000000000600052601260045260246000fd5b60006112b282610d63565b91506112bd83610d63565b9250826112cd576112cc611278565b5b828204905092915050565b60006112e382610d63565b91506112ee83610d63565b92508282101561130157611300610fd4565b5b82820390509291505056fea26469706673582212205ec7eb8f98ae9a900e67b04768af56474e48f9508af99a1fcb64c0bc1ed1961164736f6c63430008090033",
  "immutableReferences": {},
  "source": " // SPDX-License-Identifier: MIT\r\npragma solidity ^0.8.9;\r\n\r\ncontract Test{\r\n    struct DonatorInfo{\r\n        address payable donator;    // \r\n        uint256 donation;   // \r\n        uint256 donatiotime; //  \r\n    }\r\n\r\n\r\n    struct Item {\r\n        uint256 price; //  \r\n        bool purchased; //    \r\n    }\r\n\r\n    address payable owner;\r\n    uint256 private _totalDonations;\r\n    // address constant internal contractAddr ; \r\n\r\n    DonatorInfo[] public donors;    \r\n    uint256[] public GCs;\r\n    uint256 itemCount = 0 ; \r\n    uint256 donationTime = block.timestamp;    \r\n\r\n    mapping(address => uint256) public donators; \r\n    mapping(address => uint256) public GC;\r\n    mapping(uint256 =>  Item) public items; //  ID     \r\n    mapping(address => uint256) public donationTimes; //    \r\n\r\n    event DONATION(address indexed donator, uint256 donation);\r\n    event CREATEGC(address indexed donator, uint256 GC);\r\n\r\n    constructor() {\r\n        address sender = msg.sender;\r\n        owner = payable(sender);\r\n    }\r\n\r\n    function donate() public payable {\r\n        //  0 ETH \r\n        require(msg.value > 0, 'You must send some ether to donate');\r\n        //   \r\n        donators[msg.sender] += msg.value;\r\n        //   \r\n        donationTimes[msg.sender] = donationTime;\r\n\r\n        //    , donors  \r\n        if(donators[msg.sender] == msg.value){\r\n            DonatorInfo memory d;\r\n            d.donator = owner;\r\n            d.donation = msg.value;\r\n            d.donatiotime = donationTime; //   \r\n            donors.push(d);\r\n        }\r\n\r\n        _totalDonations += msg.value;\r\n\r\n        emit DONATION(msg.sender, msg.value);\r\n    }\r\n\r\n    //  &    \r\n    function getDonators(address donator) public view returns(uint256 result){\r\n        require(donators[donator] > 0, 'This account did not donate');\r\n        uint256 donation = donators[donator];\r\n        return donation ;\r\n    }\r\n\r\n    //   \r\n    function getDanatorTime(address donator) public view returns (uint256 result) {\r\n        return donationTimes[donator];\r\n    }\r\n\r\n    /** \r\n    * @dev    \r\n    * @return result donors \r\n    */\r\n    function getDonors() public view returns(uint256 result){\r\n        uint256 donorslen = donors.length;\r\n        return donorslen;\r\n    }\r\n\r\n    //     \r\n    function getTotalDonations() public view returns(uint256 result) {\r\n        return _totalDonations;\r\n    }\r\n\r\n    // GC \r\n    function createGC(address donator) public {\r\n        require(donators[donator] > 0 , \"You dont't receive GCOIN \");\r\n        uint256 giveGC = calcGC(donator);\r\n        GC[donator] += giveGC;\r\n        \r\n        emit CREATEGC(donator, giveGC);\r\n    }\r\n\r\n    //GC \r\n    function calcGC(address donator) internal view returns(uint256 result) {\r\n        uint256 donation = donators[donator];\r\n        uint256 dnGC = donation / 10;\r\n        return dnGC;\r\n    }\r\n\r\n    //GC \r\n    function getGC(address donator) external view returns (uint256 result){\r\n           require(GC[donator] > 0, \"You don't have GCOIN.\");\r\n           return GC[donator];\r\n    }\r\n\r\n    function createItem(uint256 itemPrice) public {\r\n       //     count 1  ->      \r\n       items[itemCount++] = Item(itemPrice, false);\r\n    }\r\n\r\n\r\n\r\n    //   \r\n    function buyItem(address donator, uint256 itemId) public {\r\n        require(GC[donator] > 0, \"You don't have GCOIN.\");\r\n    \r\n        //itemId    \r\n        Item storage item = items[itemId];\r\n\r\n        //  CG  \r\n        require(GC[donator] >= item.price, \"Not enough GC to buy this item\");\r\n\r\n        //  \r\n        deductBalance(donator, item.price);\r\n\r\n        // ->         true  false\r\n        item.purchased = true;\r\n        \r\n    }\r\n\r\n    //  \r\n    function deductBalance(address donator, uint256 amount) internal  {\r\n        GC[donator] -= amount;\r\n    }\r\n\r\n}",
  "sourcePath": "C:\\Users\\user\\Desktop\\bob project\\smart-contract\\contracts\\Test.sol",
  "compiler": {
    "name": "solc",
    "version": "0.8.9+commit.e5eed63a.Emscripten.clang"
  },
  "schemaVersion": "3.4.14",
  "updatedAt": "2023-08-01T09:42:34.124Z",
  "networkType": "ethereum",
  "devdoc": {
    "kind": "dev",
    "methods": {
      "getDonors()": {
        "details": "   ",
        "returns": {
          "result": "donors "
        }
      }
    },
    "version": 1
  },
  "userdoc": {
    "kind": "user",
    "methods": {},
    "version": 1
  }
}