{
  "contractName": "Test",
  "abi": [
    {
      "inputs": [],
      "stateMutability": "nonpayable",
      "type": "constructor"
    },
    {
      "anonymous": false,
      "inputs": [
        {
          "indexed": true,
          "internalType": "address",
          "name": "donator",
          "type": "address"
        },
        {
          "indexed": false,
          "internalType": "uint256",
          "name": "GC",
          "type": "uint256"
        }
      ],
      "name": "CREATEGC",
      "type": "event"
    },
    {
      "anonymous": false,
      "inputs": [
        {
          "indexed": true,
          "internalType": "address",
          "name": "donator",
          "type": "address"
        },
        {
          "indexed": false,
          "internalType": "uint256",
          "name": "donation",
          "type": "uint256"
        }
      ],
      "name": "DONATION",
      "type": "event"
    },
    {
      "inputs": [
        {
          "internalType": "address",
          "name": "",
          "type": "address"
        }
      ],
      "name": "GC",
      "outputs": [
        {
          "internalType": "uint256",
          "name": "",
          "type": "uint256"
        }
      ],
      "stateMutability": "view",
      "type": "function",
      "constant": true
    },
    {
      "inputs": [
        {
          "internalType": "uint256",
          "name": "",
          "type": "uint256"
        }
      ],
      "name": "GCs",
      "outputs": [
        {
          "internalType": "uint256",
          "name": "",
          "type": "uint256"
        }
      ],
      "stateMutability": "view",
      "type": "function",
      "constant": true
    },
    {
      "inputs": [
        {
          "internalType": "address",
          "name": "",
          "type": "address"
        }
      ],
      "name": "donators",
      "outputs": [
        {
          "internalType": "uint256",
          "name": "",
          "type": "uint256"
        }
      ],
      "stateMutability": "view",
      "type": "function",
      "constant": true
    },
    {
      "inputs": [
        {
          "internalType": "uint256",
          "name": "",
          "type": "uint256"
        }
      ],
      "name": "donors",
      "outputs": [
        {
          "internalType": "address payable",
          "name": "donator",
          "type": "address"
        },
        {
          "internalType": "uint256",
          "name": "donation",
          "type": "uint256"
        }
      ],
      "stateMutability": "view",
      "type": "function",
      "constant": true
    },
    {
      "inputs": [
        {
          "internalType": "uint256",
          "name": "",
          "type": "uint256"
        }
      ],
      "name": "items",
      "outputs": [
        {
          "internalType": "uint256",
          "name": "price",
          "type": "uint256"
        },
        {
          "internalType": "bool",
          "name": "purchased",
          "type": "bool"
        }
      ],
      "stateMutability": "view",
      "type": "function",
      "constant": true
    },
    {
      "inputs": [],
      "name": "donate",
      "outputs": [],
      "stateMutability": "payable",
      "type": "function",
      "payable": true
    },
    {
      "inputs": [
        {
          "internalType": "address",
          "name": "donator",
          "type": "address"
        }
      ],
      "name": "getDonators",
      "outputs": [
        {
          "internalType": "uint256",
          "name": "result",
          "type": "uint256"
        }
      ],
      "stateMutability": "view",
      "type": "function",
      "constant": true
    },
    {
      "inputs": [],
      "name": "getDonors",
      "outputs": [
        {
          "internalType": "uint256",
          "name": "result",
          "type": "uint256"
        }
      ],
      "stateMutability": "view",
      "type": "function",
      "constant": true
    },
    {
      "inputs": [],
      "name": "getTotalDonations",
      "outputs": [
        {
          "internalType": "uint256",
          "name": "result",
          "type": "uint256"
        }
      ],
      "stateMutability": "view",
      "type": "function",
      "constant": true
    },
    {
      "inputs": [
        {
          "internalType": "address",
          "name": "donator",
          "type": "address"
        }
      ],
      "name": "createGC",
      "outputs": [],
      "stateMutability": "nonpayable",
      "type": "function"
    },
    {
      "inputs": [
        {
          "internalType": "address",
          "name": "donator",
          "type": "address"
        }
      ],
      "name": "getGC",
      "outputs": [
        {
          "internalType": "uint256",
          "name": "result",
          "type": "uint256"
        }
      ],
      "stateMutability": "view",
      "type": "function",
      "constant": true
    },
    {
      "inputs": [
        {
          "internalType": "uint256",
          "name": "itemPrice",
          "type": "uint256"
        }
      ],
      "name": "createItem",
      "outputs": [],
      "stateMutability": "nonpayable",
      "type": "function"
    },
    {
      "inputs": [
        {
          "internalType": "address",
          "name": "donator",
          "type": "address"
        },
        {
          "internalType": "uint256",
          "name": "itemId",
          "type": "uint256"
        }
      ],
      "name": "buyItem",
      "outputs": [],
      "stateMutability": "nonpayable",
      "type": "function"
    }
  ],
  "bytecode": "0x6080604052600060045534801561001557600080fd5b506000339050806000806101000a81548173ffffffffffffffffffffffffffffffffffffffff021916908373ffffffffffffffffffffffffffffffffffffffff160217905550506111c98061006b6000396000f3fe6080604052600436106100c25760003560e01c8063a6841d041161007f578063d24f8cdd11610059578063d24f8cdd146102a2578063d7a5d5d3146102df578063ed88c68e14610308578063febc719114610312576100c2565b8063a6841d04146101ea578063bfb231d214610227578063cb2c741a14610265576100c2565b80630d47a279146100c75780634abfa163146101045780637096960814610142578063777c658f1461016b57806396f300d4146101965780639f37092a146101c1575b600080fd5b3480156100d357600080fd5b506100ee60048036038101906100e99190610c2e565b61034f565b6040516100fb9190610c6a565b60405180910390f35b34801561011057600080fd5b5061012b60048036038101906101269190610c2e565b610373565b604051610139929190610cc6565b60405180910390f35b34801561014e57600080fd5b5061016960048036038101906101649190610d2d565b6103c7565b005b34801561017757600080fd5b506101806104fe565b60405161018d9190610c6a565b60405180910390f35b3480156101a257600080fd5b506101ab610508565b6040516101b89190610c6a565b60405180910390f35b3480156101cd57600080fd5b506101e860048036038101906101e39190610d5a565b61051a565b005b3480156101f657600080fd5b50610211600480360381019061020c9190610d2d565b610669565b60405161021e9190610c6a565b60405180910390f35b34801561023357600080fd5b5061024e60048036038101906102499190610c2e565b610739565b60405161025c929190610db5565b60405180910390f35b34801561027157600080fd5b5061028c60048036038101906102879190610d2d565b61076a565b6040516102999190610c6a565b60405180910390f35b3480156102ae57600080fd5b506102c960048036038101906102c49190610d2d565b610834565b6040516102d69190610c6a565b60405180910390f35b3480156102eb57600080fd5b5061030660048036038101906103019190610c2e565b61084c565b005b6103106108bd565b005b34801561031e57600080fd5b5061033960048036038101906103349190610d2d565b610af1565b6040516103469190610c6a565b60405180910390f35b6003818154811061035f57600080fd5b906000526020600020016000915090505481565b6002818154811061038357600080fd5b90600052602060002090600202016000915090508060000160009054906101000a900473ffffffffffffffffffffffffffffffffffffffff16908060010154905082565b6000600560008373ffffffffffffffffffffffffffffffffffffffff1673ffffffffffffffffffffffffffffffffffffffff1681526020019081526020016000205411610449576040517f08c379a000000000000000000000000000000000000000000000000000000000815260040161044090610e3b565b60405180910390fd5b600061045482610b09565b905080600660008473ffffffffffffffffffffffffffffffffffffffff1673ffffffffffffffffffffffffffffffffffffffff16815260200190815260200160002060008282546104a59190610e8a565b925050819055508173ffffffffffffffffffffffffffffffffffffffff167fe84953d74eb42697c379a79176e65b465c6d5f9f08e6c1429ce3b22e7c07af7d826040516104f29190610c6a565b60405180910390a25050565b6000600154905090565b60008060028054905090508091505090565b6000600660008473ffffffffffffffffffffffffffffffffffffffff1673ffffffffffffffffffffffffffffffffffffffff168152602001908152602001600020541161059c576040517f08c379a000000000000000000000000000000000000000000000000000000000815260040161059390610f2c565b60405180910390fd5b60006007600083815260200190815260200160002090508060000154600660008573ffffffffffffffffffffffffffffffffffffffff1673ffffffffffffffffffffffffffffffffffffffff168152602001908152602001600020541015610639576040517f08c379a000000000000000000000000000000000000000000000000000000000815260040161063090610f98565b60405180910390fd5b610647838260000154610b69565b60018160010160006101000a81548160ff021916908315150217905550505050565b600080600560008473ffffffffffffffffffffffffffffffffffffffff1673ffffffffffffffffffffffffffffffffffffffff16815260200190815260200160002054116106ec576040517f08c379a00000000000000000000000000000000000000000000000000000000081526004016106e390611004565b60405180910390fd5b6000600560008473ffffffffffffffffffffffffffffffffffffffff1673ffffffffffffffffffffffffffffffffffffffff16815260200190815260200160002054905080915050919050565b60076020528060005260406000206000915090508060000154908060010160009054906101000a900460ff16905082565b600080600660008473ffffffffffffffffffffffffffffffffffffffff1673ffffffffffffffffffffffffffffffffffffffff16815260200190815260200160002054116107ed576040517f08c379a00000000000000000000000000000000000000000000000000000000081526004016107e490610f2c565b60405180910390fd5b600660008373ffffffffffffffffffffffffffffffffffffffff1673ffffffffffffffffffffffffffffffffffffffff168152602001908152602001600020549050919050565b60056020528060005260406000206000915090505481565b604051806040016040528082815260200160001515815250600760006004600081548092919061087b90611024565b9190505581526020019081526020016000206000820151816000015560208201518160010160006101000a81548160ff02191690831515021790555090505050565b60003411610900576040517f08c379a00000000000000000000000000000000000000000000000000000000081526004016108f7906110df565b60405180910390fd5b34600560003373ffffffffffffffffffffffffffffffffffffffff1673ffffffffffffffffffffffffffffffffffffffff168152602001908152602001600020600082825461094f9190610e8a565b9250508190555034600560003373ffffffffffffffffffffffffffffffffffffffff1673ffffffffffffffffffffffffffffffffffffffff168152602001908152602001600020541415610a88576109a5610bc3565b60008054906101000a900473ffffffffffffffffffffffffffffffffffffffff16816000019073ffffffffffffffffffffffffffffffffffffffff16908173ffffffffffffffffffffffffffffffffffffffff168152505034816020018181525050600281908060018154018082558091505060019003906000526020600020906002020160009091909190915060008201518160000160006101000a81548173ffffffffffffffffffffffffffffffffffffffff021916908373ffffffffffffffffffffffffffffffffffffffff160217905550602082015181600101555050505b3460016000828254610a9a9190610e8a565b925050819055503373ffffffffffffffffffffffffffffffffffffffff167f2d4c80fe532a63706e1e7f9411e327a7cf921da46b1d723c95d918e7262fc14834604051610ae79190610c6a565b60405180910390a2565b60066020528060005260406000206000915090505481565b600080600560008473ffffffffffffffffffffffffffffffffffffffff1673ffffffffffffffffffffffffffffffffffffffff1681526020019081526020016000205490506000600a82610b5d919061112e565b90508092505050919050565b80600660008473ffffffffffffffffffffffffffffffffffffffff1673ffffffffffffffffffffffffffffffffffffffff1681526020019081526020016000206000828254610bb8919061115f565b925050819055505050565b6040518060400160405280600073ffffffffffffffffffffffffffffffffffffffff168152602001600081525090565b600080fd5b6000819050919050565b610c0b81610bf8565b8114610c1657600080fd5b50565b600081359050610c2881610c02565b92915050565b600060208284031215610c4457610c43610bf3565b5b6000610c5284828501610c19565b91505092915050565b610c6481610bf8565b82525050565b6000602082019050610c7f6000830184610c5b565b92915050565b600073ffffffffffffffffffffffffffffffffffffffff82169050919050565b6000610cb082610c85565b9050919050565b610cc081610ca5565b82525050565b6000604082019050610cdb6000830185610cb7565b610ce86020830184610c5b565b9392505050565b6000610cfa82610c85565b9050919050565b610d0a81610cef565b8114610d1557600080fd5b50565b600081359050610d2781610d01565b92915050565b600060208284031215610d4357610d42610bf3565b5b6000610d5184828501610d18565b91505092915050565b60008060408385031215610d7157610d70610bf3565b5b6000610d7f85828601610d18565b9250506020610d9085828601610c19565b9150509250929050565b60008115159050919050565b610daf81610d9a565b82525050565b6000604082019050610dca6000830185610c5b565b610dd76020830184610da6565b9392505050565b600082825260208201905092915050565b7f596f7520646f6e74277420726563656976652047434f494e2000000000000000600082015250565b6000610e25601983610dde565b9150610e3082610def565b602082019050919050565b60006020820190508181036000830152610e5481610e18565b9050919050565b7f4e487b7100000000000000000000000000000000000000000000000000000000600052601160045260246000fd5b6000610e9582610bf8565b9150610ea083610bf8565b9250827fffffffffffffffffffffffffffffffffffffffffffffffffffffffffffffffff03821115610ed557610ed4610e5b565b5b828201905092915050565b7f596f7520646f6e277420686176652047434f494e2e0000000000000000000000600082015250565b6000610f16601583610dde565b9150610f2182610ee0565b602082019050919050565b60006020820190508181036000830152610f4581610f09565b9050919050565b7f4e6f7420656e6f75676820474320746f206275792074686973206974656d0000600082015250565b6000610f82601e83610dde565b9150610f8d82610f4c565b602082019050919050565b60006020820190508181036000830152610fb181610f75565b9050919050565b7f54686973206163636f756e7420646964206e6f7420646f6e6174650000000000600082015250565b6000610fee601b83610dde565b9150610ff982610fb8565b602082019050919050565b6000602082019050818103600083015261101d81610fe1565b9050919050565b600061102f82610bf8565b91507fffffffffffffffffffffffffffffffffffffffffffffffffffffffffffffffff82141561106257611061610e5b565b5b600182019050919050565b7f596f75206d7573742073656e6420736f6d6520657468657220746f20646f6e6160008201527f7465000000000000000000000000000000000000000000000000000000000000602082015250565b60006110c9602283610dde565b91506110d48261106d565b604082019050919050565b600060208201905081810360008301526110f8816110bc565b9050919050565b7f4e487b7100000000000000000000000000000000000000000000000000000000600052601260045260246000fd5b600061113982610bf8565b915061114483610bf8565b925082611154576111536110ff565b5b828204905092915050565b600061116a82610bf8565b915061117583610bf8565b92508282101561118857611187610e5b565b5b82820390509291505056fea26469706673582212209c3639cb4514d05269f167ddba144380e9f39430406890b84fe0120ef8d9e43d64736f6c63430008090033",
  "immutableReferences": {},
  "source": " // SPDX-License-Identifier: MIT\r\npragma solidity ^0.8.9;\r\n\r\ncontract Test{\r\n    struct DonatorInfo{\r\n        address payable donator;    // \r\n        uint256 donation;   // \r\n    }\r\n\r\n\r\n    struct Item {\r\n        uint256 price; //  \r\n        bool purchased; //    \r\n    }\r\n\r\n    address payable owner;\r\n    uint256 private _totalDonations;\r\n    // address constant internal contractAddr ; \r\n\r\n    DonatorInfo[] public donors;    \r\n    uint256[] public GCs;\r\n    uint256 itemCount = 0 ;    \r\n\r\n    mapping(address => uint256) public donators;\r\n    mapping(address => uint256) public GC;\r\n    mapping(uint256 =>  Item) public items; //  ID     \r\n\r\n\r\n\r\n    event DONATION(address indexed donator, uint256 donation);\r\n    event CREATEGC(address indexed donator, uint256 GC);\r\n\r\n    constructor() {\r\n        address sender = msg.sender;\r\n        owner = payable(sender);\r\n    }\r\n\r\n    function donate() public payable {\r\n        //  0 ETH \r\n        require(msg.value > 0, 'You must send some ether to donate');\r\n        //   \r\n        donators[msg.sender] += msg.value;\r\n        //    , donors  \r\n        if(donators[msg.sender] == msg.value){\r\n            DonatorInfo memory d;\r\n            d.donator = owner;\r\n            d.donation = msg.value;\r\n            donors.push(d);\r\n        }\r\n\r\n        _totalDonations += msg.value;\r\n\r\n        emit DONATION(msg.sender, msg.value);\r\n    }\r\n\r\n    //  &    \r\n    function getDonators(address donator) public view returns(uint256 result){\r\n        require(donators[donator] > 0, 'This account did not donate');\r\n        uint256 donation = donators[donator];\r\n        return donation;\r\n    }\r\n\r\n    /** \r\n    * @dev    \r\n    * @return result donors \r\n    */\r\n    function getDonors() public view returns(uint256 result){\r\n        uint256 donorslen = donors.length;\r\n        return donorslen;\r\n    }\r\n\r\n    //     \r\n    function getTotalDonations() public view returns(uint256 result) {\r\n        return _totalDonations;\r\n    }\r\n\r\n    // GC \r\n    function createGC(address donator) public {\r\n        require(donators[donator] > 0 , \"You dont't receive GCOIN \");\r\n        uint256 giveGC = calcGC(donator);\r\n        GC[donator] += giveGC;\r\n        \r\n        emit CREATEGC(donator, giveGC);\r\n    }\r\n\r\n    //GC \r\n    function calcGC(address donator) internal view returns(uint256 result) {\r\n        uint256 donation = donators[donator];\r\n        uint256 dnGC = donation / 10;\r\n        return dnGC;\r\n    }\r\n\r\n    //GC \r\n    function getGC(address donator) external view returns (uint256 result){\r\n           require(GC[donator] > 0, \"You don't have GCOIN.\");\r\n           return GC[donator];\r\n    }\r\n\r\n    function createItem(uint256 itemPrice) public {\r\n       //     count 1  ->      \r\n       items[itemCount++] = Item(itemPrice, false);\r\n    }\r\n\r\n    //   \r\n    function buyItem(address donator, uint256 itemId) public {\r\n        require(GC[donator] > 0, \"You don't have GCOIN.\");\r\n    \r\n        //itemId    \r\n        Item storage item = items[itemId];\r\n\r\n        //  CG  \r\n        require(GC[donator] >= item.price, \"Not enough GC to buy this item\");\r\n\r\n        //  \r\n        deductBalance(donator, item.price);\r\n\r\n        // ->         true  false\r\n        item.purchased = true;\r\n        \r\n    }\r\n\r\n    //  \r\n    function deductBalance(address donator, uint256 amount) internal  {\r\n        GC[donator] -= amount;\r\n    }\r\n\r\n\r\n    \r\n\r\n\r\n\r\n\r\n}",
  "sourcePath": "C:\\Users\\user\\Desktop\\bob project\\smart-contract\\contracts\\Test.sol",
  "compiler": {
    "name": "solc",
    "version": "0.8.9+commit.e5eed63a.Emscripten.clang"
  },
  "schemaVersion": "3.4.14",
  "updatedAt": "2023-07-31T23:48:20.438Z",
  "networkType": "ethereum",
  "devdoc": {
    "kind": "dev",
    "methods": {
      "getDonors()": {
        "details": "   ",
        "returns": {
          "result": "donors "
        }
      }
    },
    "version": 1
  },
  "userdoc": {
    "kind": "user",
    "methods": {},
    "version": 1
  }
}