{
  "contractName": "Test",
  "abi": [
    {
      "inputs": [],
      "stateMutability": "nonpayable",
      "type": "constructor"
    },
    {
      "anonymous": false,
      "inputs": [
        {
          "indexed": true,
          "internalType": "address",
          "name": "donator",
          "type": "address"
        },
        {
          "indexed": false,
          "internalType": "uint256",
          "name": "donation",
          "type": "uint256"
        }
      ],
      "name": "Danation",
      "type": "event"
    },
    {
      "inputs": [
        {
          "internalType": "address",
          "name": "",
          "type": "address"
        }
      ],
      "name": "donators",
      "outputs": [
        {
          "internalType": "uint256",
          "name": "",
          "type": "uint256"
        }
      ],
      "stateMutability": "view",
      "type": "function",
      "constant": true
    },
    {
      "inputs": [
        {
          "internalType": "uint256",
          "name": "",
          "type": "uint256"
        }
      ],
      "name": "donors",
      "outputs": [
        {
          "internalType": "address payable",
          "name": "donator",
          "type": "address"
        },
        {
          "internalType": "uint256",
          "name": "donation",
          "type": "uint256"
        }
      ],
      "stateMutability": "view",
      "type": "function",
      "constant": true
    },
    {
      "inputs": [],
      "name": "donate",
      "outputs": [],
      "stateMutability": "payable",
      "type": "function",
      "payable": true
    },
    {
      "inputs": [],
      "name": "getTotalDonations",
      "outputs": [
        {
          "internalType": "uint256",
          "name": "result",
          "type": "uint256"
        }
      ],
      "stateMutability": "view",
      "type": "function",
      "constant": true
    }
  ],
  "bytecode": "0x608060405234801561001057600080fd5b506000339050806000806101000a81548173ffffffffffffffffffffffffffffffffffffffff021916908373ffffffffffffffffffffffffffffffffffffffff1602179055505061078d806100666000396000f3fe60806040526004361061003f5760003560e01c80634abfa16314610044578063777c658f14610082578063d24f8cdd146100ad578063ed88c68e146100ea575b600080fd5b34801561005057600080fd5b5061006b60048036038101906100669190610497565b6100f4565b604051610079929190610514565b60405180910390f35b34801561008e57600080fd5b50610097610148565b6040516100a4919061053d565b60405180910390f35b3480156100b957600080fd5b506100d460048036038101906100cf9190610596565b610152565b6040516100e1919061053d565b60405180910390f35b6100f261016a565b005b6002818154811061010457600080fd5b90600052602060002090600202016000915090508060000160009054906101000a900473ffffffffffffffffffffffffffffffffffffffff16908060010154905082565b6000600154905090565b60036020528060005260406000206000915090505481565b3373ffffffffffffffffffffffffffffffffffffffff1660008054906101000a900473ffffffffffffffffffffffffffffffffffffffff1673ffffffffffffffffffffffffffffffffffffffff16146101f8576040517f08c379a00000000000000000000000000000000000000000000000000000000081526004016101ef90610620565b60405180910390fd5b6000341161023b576040517f08c379a0000000000000000000000000000000000000000000000000000000008152600401610232906106b2565b60405180910390fd5b34600360003373ffffffffffffffffffffffffffffffffffffffff1673ffffffffffffffffffffffffffffffffffffffff168152602001908152602001600020600082825461028a9190610701565b9250508190555034600360003373ffffffffffffffffffffffffffffffffffffffff1673ffffffffffffffffffffffffffffffffffffffff1681526020019081526020016000205414156103c3576102e061042c565b60008054906101000a900473ffffffffffffffffffffffffffffffffffffffff16816000019073ffffffffffffffffffffffffffffffffffffffff16908173ffffffffffffffffffffffffffffffffffffffff168152505034816020018181525050600281908060018154018082558091505060019003906000526020600020906002020160009091909190915060008201518160000160006101000a81548173ffffffffffffffffffffffffffffffffffffffff021916908373ffffffffffffffffffffffffffffffffffffffff160217905550602082015181600101555050505b34600160008282546103d59190610701565b925050819055503373ffffffffffffffffffffffffffffffffffffffff167f8b7b05c2d1140b1139d8ac97772052eb3141b67e1c63b788d9dbf28fa8a28c1a34604051610422919061053d565b60405180910390a2565b6040518060400160405280600073ffffffffffffffffffffffffffffffffffffffff168152602001600081525090565b600080fd5b6000819050919050565b61047481610461565b811461047f57600080fd5b50565b6000813590506104918161046b565b92915050565b6000602082840312156104ad576104ac61045c565b5b60006104bb84828501610482565b91505092915050565b600073ffffffffffffffffffffffffffffffffffffffff82169050919050565b60006104ef826104c4565b9050919050565b6104ff816104e4565b82525050565b61050e81610461565b82525050565b600060408201905061052960008301856104f6565b6105366020830184610505565b9392505050565b60006020820190506105526000830184610505565b92915050565b6000610563826104c4565b9050919050565b61057381610558565b811461057e57600080fd5b50565b6000813590506105908161056a565b92915050565b6000602082840312156105ac576105ab61045c565b5b60006105ba84828501610581565b91505092915050565b600082825260208201905092915050565b7f496e636f72726563740000000000000000000000000000000000000000000000600082015250565b600061060a6009836105c3565b9150610615826105d4565b602082019050919050565b60006020820190508181036000830152610639816105fd565b9050919050565b7f596f75206d7573742073656e6420736f6d6520657468657220746f20646f6e6160008201527f7465000000000000000000000000000000000000000000000000000000000000602082015250565b600061069c6022836105c3565b91506106a782610640565b604082019050919050565b600060208201905081810360008301526106cb8161068f565b9050919050565b7f4e487b7100000000000000000000000000000000000000000000000000000000600052601160045260246000fd5b600061070c82610461565b915061071783610461565b9250827fffffffffffffffffffffffffffffffffffffffffffffffffffffffffffffffff0382111561074c5761074b6106d2565b5b82820190509291505056fea264697066735822122004cb03e68cd8ee35d7466cb151e251eabc5ed8ebca6932c77bd917f0313d023464736f6c63430008090033",
  "immutableReferences": {},
  "source": " // SPDX-License-Identifier: MIT\r\npragma solidity ^0.8.9;\r\n\r\ncontract Test{\r\n    struct DonatorInfo{\r\n        address payable donator;    // \r\n        uint256 donation;   // \r\n    }\r\n\r\n    address payable owner;\r\n    uint256 private _totalDonations;\r\n    // address constant internal contractAddr ; \r\n\r\n    DonatorInfo[] public donors;    \r\n    mapping(address => uint256) public donators;\r\n\r\n    event Danation(address indexed donator, uint256 donation);\r\n\r\n    constructor() {\r\n        address sender = msg.sender;\r\n        owner = payable(sender);\r\n    }\r\n\r\n    function donate() public payable{\r\n        require(owner == msg.sender, 'Incorrect');\r\n        //  0 ETH \r\n        require(msg.value > 0, 'You must send some ether to donate');\r\n        //   \r\n        donators[msg.sender] += msg.value;\r\n        //    , donors  \r\n        if(donators[msg.sender] == msg.value){\r\n            DonatorInfo memory d;\r\n            d.donator = owner;\r\n            d.donation = msg.value;\r\n            donors.push(d);\r\n        }\r\n\r\n        _totalDonations += msg.value;\r\n\r\n        emit Danation(msg.sender, msg.value);\r\n    }\r\n\r\n    function getTotalDonations() public view returns(uint256 result) {\r\n        return _totalDonations;\r\n    }\r\n}",
  "sourcePath": "C:\\Users\\user\\Desktop\\bob project\\smart-contract\\contracts\\Test.sol",
  "compiler": {
    "name": "solc",
    "version": "0.8.9+commit.e5eed63a.Emscripten.clang"
  },
  "schemaVersion": "3.4.14",
  "updatedAt": "2023-07-31T10:03:59.842Z",
  "networkType": "ethereum",
  "devdoc": {
    "kind": "dev",
    "methods": {},
    "version": 1
  },
  "userdoc": {
    "kind": "user",
    "methods": {},
    "version": 1
  }
}