{
  "contractName": "Test",
  "abi": [
    {
      "inputs": [],
      "stateMutability": "nonpayable",
      "type": "constructor"
    },
    {
      "anonymous": false,
      "inputs": [
        {
          "indexed": true,
          "internalType": "address",
          "name": "donator",
          "type": "address"
        },
        {
          "indexed": false,
          "internalType": "uint256",
          "name": "GC",
          "type": "uint256"
        }
      ],
      "name": "CREATEGC",
      "type": "event"
    },
    {
      "anonymous": false,
      "inputs": [
        {
          "indexed": true,
          "internalType": "address",
          "name": "donator",
          "type": "address"
        },
        {
          "indexed": false,
          "internalType": "uint256",
          "name": "donation",
          "type": "uint256"
        }
      ],
      "name": "DONATION",
      "type": "event"
    },
    {
      "inputs": [
        {
          "internalType": "address",
          "name": "",
          "type": "address"
        }
      ],
      "name": "GC",
      "outputs": [
        {
          "internalType": "uint256",
          "name": "",
          "type": "uint256"
        }
      ],
      "stateMutability": "view",
      "type": "function",
      "constant": true
    },
    {
      "inputs": [
        {
          "internalType": "uint256",
          "name": "",
          "type": "uint256"
        }
      ],
      "name": "GCs",
      "outputs": [
        {
          "internalType": "uint256",
          "name": "",
          "type": "uint256"
        }
      ],
      "stateMutability": "view",
      "type": "function",
      "constant": true
    },
    {
      "inputs": [
        {
          "internalType": "address",
          "name": "",
          "type": "address"
        }
      ],
      "name": "donationTimes",
      "outputs": [
        {
          "internalType": "uint256",
          "name": "",
          "type": "uint256"
        }
      ],
      "stateMutability": "view",
      "type": "function",
      "constant": true
    },
    {
      "inputs": [
        {
          "internalType": "address",
          "name": "",
          "type": "address"
        }
      ],
      "name": "donators",
      "outputs": [
        {
          "internalType": "uint256",
          "name": "",
          "type": "uint256"
        }
      ],
      "stateMutability": "view",
      "type": "function",
      "constant": true
    },
    {
      "inputs": [
        {
          "internalType": "uint256",
          "name": "",
          "type": "uint256"
        }
      ],
      "name": "donors",
      "outputs": [
        {
          "internalType": "address payable",
          "name": "donator",
          "type": "address"
        },
        {
          "internalType": "uint256",
          "name": "donation",
          "type": "uint256"
        },
        {
          "internalType": "uint256",
          "name": "donatiotime",
          "type": "uint256"
        }
      ],
      "stateMutability": "view",
      "type": "function",
      "constant": true
    },
    {
      "inputs": [
        {
          "internalType": "uint256",
          "name": "",
          "type": "uint256"
        }
      ],
      "name": "items",
      "outputs": [
        {
          "internalType": "uint256",
          "name": "price",
          "type": "uint256"
        },
        {
          "internalType": "bool",
          "name": "purchased",
          "type": "bool"
        }
      ],
      "stateMutability": "view",
      "type": "function",
      "constant": true
    },
    {
      "inputs": [],
      "name": "donate",
      "outputs": [],
      "stateMutability": "payable",
      "type": "function",
      "payable": true
    },
    {
      "inputs": [],
      "name": "getDonatorCount",
      "outputs": [
        {
          "components": [
            {
              "internalType": "address payable",
              "name": "donator",
              "type": "address"
            },
            {
              "internalType": "uint256",
              "name": "donation",
              "type": "uint256"
            },
            {
              "internalType": "uint256",
              "name": "donatiotime",
              "type": "uint256"
            }
          ],
          "internalType": "struct Test.DonatorInfo[]",
          "name": "",
          "type": "tuple[]"
        }
      ],
      "stateMutability": "view",
      "type": "function",
      "constant": true
    },
    {
      "inputs": [
        {
          "internalType": "address",
          "name": "donator",
          "type": "address"
        }
      ],
      "name": "getDonators",
      "outputs": [
        {
          "internalType": "uint256",
          "name": "result",
          "type": "uint256"
        }
      ],
      "stateMutability": "view",
      "type": "function",
      "constant": true
    },
    {
      "inputs": [
        {
          "internalType": "address",
          "name": "donator",
          "type": "address"
        }
      ],
      "name": "getDanatorTime",
      "outputs": [
        {
          "internalType": "uint256",
          "name": "result",
          "type": "uint256"
        }
      ],
      "stateMutability": "view",
      "type": "function",
      "constant": true
    },
    {
      "inputs": [],
      "name": "getDonors",
      "outputs": [
        {
          "internalType": "uint256",
          "name": "result",
          "type": "uint256"
        }
      ],
      "stateMutability": "view",
      "type": "function",
      "constant": true
    },
    {
      "inputs": [],
      "name": "getTotalDonations",
      "outputs": [
        {
          "internalType": "uint256",
          "name": "result",
          "type": "uint256"
        }
      ],
      "stateMutability": "view",
      "type": "function",
      "constant": true
    },
    {
      "inputs": [
        {
          "internalType": "address",
          "name": "donator",
          "type": "address"
        }
      ],
      "name": "createGC",
      "outputs": [],
      "stateMutability": "nonpayable",
      "type": "function"
    },
    {
      "inputs": [
        {
          "internalType": "address",
          "name": "donator",
          "type": "address"
        }
      ],
      "name": "getGC",
      "outputs": [
        {
          "internalType": "uint256",
          "name": "result",
          "type": "uint256"
        }
      ],
      "stateMutability": "view",
      "type": "function",
      "constant": true
    },
    {
      "inputs": [
        {
          "internalType": "uint256",
          "name": "itemPrice",
          "type": "uint256"
        }
      ],
      "name": "createItem",
      "outputs": [],
      "stateMutability": "nonpayable",
      "type": "function"
    },
    {
      "inputs": [
        {
          "internalType": "address",
          "name": "donator",
          "type": "address"
        },
        {
          "internalType": "uint256",
          "name": "itemId",
          "type": "uint256"
        }
      ],
      "name": "buyItem",
      "outputs": [],
      "stateMutability": "nonpayable",
      "type": "function"
    }
  ],
  "bytecode": "0x608060405260006004554260055534801561001957600080fd5b506000339050806000806101000a81548173ffffffffffffffffffffffffffffffffffffffff021916908373ffffffffffffffffffffffffffffffffffffffff160217905550506115778061006f6000396000f3fe6080604052600436106100f35760003560e01c8063a6841d041161008a578063d24f8cdd11610059578063d24f8cdd14610379578063d7a5d5d3146103b6578063ed88c68e146103df578063febc7191146103e9576100f3565b8063a6841d0414610284578063bfb231d2146102c1578063c48e7c71146102ff578063cb2c741a1461033c576100f3565b80638709fed9116100c65780638709fed9146101c85780639171b1a91461020557806396f300d4146102305780639f37092a1461025b576100f3565b80630d47a279146100f85780634abfa163146101355780637096960814610174578063777c658f1461019d575b600080fd5b34801561010457600080fd5b5061011f600480360381019061011a9190610e9d565b610426565b60405161012c9190610ed9565b60405180910390f35b34801561014157600080fd5b5061015c60048036038101906101579190610e9d565b61044a565b60405161016b93929190610f35565b60405180910390f35b34801561018057600080fd5b5061019b60048036038101906101969190610faa565b6104a4565b005b3480156101a957600080fd5b506101b26105db565b6040516101bf9190610ed9565b60405180910390f35b3480156101d457600080fd5b506101ef60048036038101906101ea9190610faa565b6105e5565b6040516101fc9190610ed9565b60405180910390f35b34801561021157600080fd5b5061021a61062e565b60405161022791906110e6565b60405180910390f35b34801561023c57600080fd5b506102456106f7565b6040516102529190610ed9565b60405180910390f35b34801561026757600080fd5b50610282600480360381019061027d9190611108565b610709565b005b34801561029057600080fd5b506102ab60048036038101906102a69190610faa565b610858565b6040516102b89190610ed9565b60405180910390f35b3480156102cd57600080fd5b506102e860048036038101906102e39190610e9d565b610928565b6040516102f6929190611163565b60405180910390f35b34801561030b57600080fd5b5061032660048036038101906103219190610faa565b610959565b6040516103339190610ed9565b60405180910390f35b34801561034857600080fd5b50610363600480360381019061035e9190610faa565b610971565b6040516103709190610ed9565b60405180910390f35b34801561038557600080fd5b506103a0600480360381019061039b9190610faa565b610a3b565b6040516103ad9190610ed9565b60405180910390f35b3480156103c257600080fd5b506103dd60048036038101906103d89190610e9d565b610a53565b005b6103e7610ac4565b005b3480156103f557600080fd5b50610410600480360381019061040b9190610faa565b610d54565b60405161041d9190610ed9565b60405180910390f35b6003818154811061043657600080fd5b906000526020600020016000915090505481565b6002818154811061045a57600080fd5b90600052602060002090600302016000915090508060000160009054906101000a900473ffffffffffffffffffffffffffffffffffffffff16908060010154908060020154905083565b6000600660008373ffffffffffffffffffffffffffffffffffffffff1673ffffffffffffffffffffffffffffffffffffffff1681526020019081526020016000205411610526576040517f08c379a000000000000000000000000000000000000000000000000000000000815260040161051d906111e9565b60405180910390fd5b600061053182610d6c565b905080600760008473ffffffffffffffffffffffffffffffffffffffff1673ffffffffffffffffffffffffffffffffffffffff16815260200190815260200160002060008282546105829190611238565b925050819055508173ffffffffffffffffffffffffffffffffffffffff167fe84953d74eb42697c379a79176e65b465c6d5f9f08e6c1429ce3b22e7c07af7d826040516105cf9190610ed9565b60405180910390a25050565b6000600154905090565b6000600960008373ffffffffffffffffffffffffffffffffffffffff1673ffffffffffffffffffffffffffffffffffffffff168152602001908152602001600020549050919050565b60606002805480602002602001604051908101604052809291908181526020016000905b828210156106ee57838290600052602060002090600302016040518060600160405290816000820160009054906101000a900473ffffffffffffffffffffffffffffffffffffffff1673ffffffffffffffffffffffffffffffffffffffff1673ffffffffffffffffffffffffffffffffffffffff1681526020016001820154815260200160028201548152505081526020019060010190610652565b50505050905090565b60008060028054905090508091505090565b6000600760008473ffffffffffffffffffffffffffffffffffffffff1673ffffffffffffffffffffffffffffffffffffffff168152602001908152602001600020541161078b576040517f08c379a0000000000000000000000000000000000000000000000000000000008152600401610782906112da565b60405180910390fd5b60006008600083815260200190815260200160002090508060000154600760008573ffffffffffffffffffffffffffffffffffffffff1673ffffffffffffffffffffffffffffffffffffffff168152602001908152602001600020541015610828576040517f08c379a000000000000000000000000000000000000000000000000000000000815260040161081f90611346565b60405180910390fd5b610836838260000154610dd1565b60018160010160006101000a81548160ff021916908315150217905550505050565b600080600660008473ffffffffffffffffffffffffffffffffffffffff1673ffffffffffffffffffffffffffffffffffffffff16815260200190815260200160002054116108db576040517f08c379a00000000000000000000000000000000000000000000000000000000081526004016108d2906113b2565b60405180910390fd5b6000600660008473ffffffffffffffffffffffffffffffffffffffff1673ffffffffffffffffffffffffffffffffffffffff16815260200190815260200160002054905080915050919050565b60086020528060005260406000206000915090508060000154908060010160009054906101000a900460ff16905082565b60096020528060005260406000206000915090505481565b600080600760008473ffffffffffffffffffffffffffffffffffffffff1673ffffffffffffffffffffffffffffffffffffffff16815260200190815260200160002054116109f4576040517f08c379a00000000000000000000000000000000000000000000000000000000081526004016109eb906112da565b60405180910390fd5b600760008373ffffffffffffffffffffffffffffffffffffffff1673ffffffffffffffffffffffffffffffffffffffff168152602001908152602001600020549050919050565b60066020528060005260406000206000915090505481565b6040518060400160405280828152602001600015158152506008600060046000815480929190610a82906113d2565b9190505581526020019081526020016000206000820151816000015560208201518160010160006101000a81548160ff02191690831515021790555090505050565b60003411610b07576040517f08c379a0000000000000000000000000000000000000000000000000000000008152600401610afe9061148d565b60405180910390fd5b34600660003373ffffffffffffffffffffffffffffffffffffffff1673ffffffffffffffffffffffffffffffffffffffff1681526020019081526020016000206000828254610b569190611238565b92505081905550600554600960003373ffffffffffffffffffffffffffffffffffffffff1673ffffffffffffffffffffffffffffffffffffffff1681526020019081526020016000208190555034600660003373ffffffffffffffffffffffffffffffffffffffff1673ffffffffffffffffffffffffffffffffffffffff168152602001908152602001600020541415610ceb57610bf2610e2b565b60008054906101000a900473ffffffffffffffffffffffffffffffffffffffff16816000019073ffffffffffffffffffffffffffffffffffffffff16908173ffffffffffffffffffffffffffffffffffffffff168152505034816020018181525050600554816040018181525050600281908060018154018082558091505060019003906000526020600020906003020160009091909190915060008201518160000160006101000a81548173ffffffffffffffffffffffffffffffffffffffff021916908373ffffffffffffffffffffffffffffffffffffffff16021790555060208201518160010155604082015181600201555050505b3460016000828254610cfd9190611238565b925050819055503373ffffffffffffffffffffffffffffffffffffffff167f2d4c80fe532a63706e1e7f9411e327a7cf921da46b1d723c95d918e7262fc14834604051610d4a9190610ed9565b60405180910390a2565b60076020528060005260406000206000915090505481565b600080600660008473ffffffffffffffffffffffffffffffffffffffff1673ffffffffffffffffffffffffffffffffffffffff16815260200190815260200160002054905060006509184e72a00082610dc591906114dc565b90508092505050919050565b80600760008473ffffffffffffffffffffffffffffffffffffffff1673ffffffffffffffffffffffffffffffffffffffff1681526020019081526020016000206000828254610e20919061150d565b925050819055505050565b6040518060600160405280600073ffffffffffffffffffffffffffffffffffffffff16815260200160008152602001600081525090565b600080fd5b6000819050919050565b610e7a81610e67565b8114610e8557600080fd5b50565b600081359050610e9781610e71565b92915050565b600060208284031215610eb357610eb2610e62565b5b6000610ec184828501610e88565b91505092915050565b610ed381610e67565b82525050565b6000602082019050610eee6000830184610eca565b92915050565b600073ffffffffffffffffffffffffffffffffffffffff82169050919050565b6000610f1f82610ef4565b9050919050565b610f2f81610f14565b82525050565b6000606082019050610f4a6000830186610f26565b610f576020830185610eca565b610f646040830184610eca565b949350505050565b6000610f7782610ef4565b9050919050565b610f8781610f6c565b8114610f9257600080fd5b50565b600081359050610fa481610f7e565b92915050565b600060208284031215610fc057610fbf610e62565b5b6000610fce84828501610f95565b91505092915050565b600081519050919050565b600082825260208201905092915050565b6000819050602082019050919050565b61100c81610f14565b82525050565b61101b81610e67565b82525050565b6060820160008201516110376000850182611003565b50602082015161104a6020850182611012565b50604082015161105d6040850182611012565b50505050565b600061106f8383611021565b60608301905092915050565b6000602082019050919050565b600061109382610fd7565b61109d8185610fe2565b93506110a883610ff3565b8060005b838110156110d95781516110c08882611063565b97506110cb8361107b565b9250506001810190506110ac565b5085935050505092915050565b600060208201905081810360008301526111008184611088565b905092915050565b6000806040838503121561111f5761111e610e62565b5b600061112d85828601610f95565b925050602061113e85828601610e88565b9150509250929050565b60008115159050919050565b61115d81611148565b82525050565b60006040820190506111786000830185610eca565b6111856020830184611154565b9392505050565b600082825260208201905092915050565b7f596f7520646f6e74277420726563656976652047434f494e2000000000000000600082015250565b60006111d360198361118c565b91506111de8261119d565b602082019050919050565b60006020820190508181036000830152611202816111c6565b9050919050565b7f4e487b7100000000000000000000000000000000000000000000000000000000600052601160045260246000fd5b600061124382610e67565b915061124e83610e67565b9250827fffffffffffffffffffffffffffffffffffffffffffffffffffffffffffffffff0382111561128357611282611209565b5b828201905092915050565b7f596f7520646f6e277420686176652047434f494e2e0000000000000000000000600082015250565b60006112c460158361118c565b91506112cf8261128e565b602082019050919050565b600060208201905081810360008301526112f3816112b7565b9050919050565b7f4e6f7420656e6f75676820474320746f206275792074686973206974656d0000600082015250565b6000611330601e8361118c565b915061133b826112fa565b602082019050919050565b6000602082019050818103600083015261135f81611323565b9050919050565b7f54686973206163636f756e7420646964206e6f7420646f6e6174650000000000600082015250565b600061139c601b8361118c565b91506113a782611366565b602082019050919050565b600060208201905081810360008301526113cb8161138f565b9050919050565b60006113dd82610e67565b91507fffffffffffffffffffffffffffffffffffffffffffffffffffffffffffffffff8214156114105761140f611209565b5b600182019050919050565b7f596f75206d7573742073656e6420736f6d6520657468657220746f20646f6e6160008201527f7465000000000000000000000000000000000000000000000000000000000000602082015250565b600061147760228361118c565b91506114828261141b565b604082019050919050565b600060208201905081810360008301526114a68161146a565b9050919050565b7f4e487b7100000000000000000000000000000000000000000000000000000000600052601260045260246000fd5b60006114e782610e67565b91506114f283610e67565b925082611502576115016114ad565b5b828204905092915050565b600061151882610e67565b915061152383610e67565b92508282101561153657611535611209565b5b82820390509291505056fea2646970667358221220d96c22d92b41ca237d74276c8e0b935b244d1bb76746d17891e3210ab45d9dc164736f6c63430008090033",
  "immutableReferences": {},
  "source": " // SPDX-License-Identifier: MIT\r\npragma solidity ^0.8.9;\r\n\r\ncontract Test{\r\n    struct DonatorInfo{\r\n        address payable donator;    // \r\n        uint256 donation;   // \r\n        uint256 donatiotime; //  \r\n    }\r\n\r\n\r\n    struct Item {\r\n        uint256 price; //  \r\n        bool purchased; //    \r\n    }\r\n\r\n    address payable owner;\r\n    uint256 private _totalDonations;\r\n    // address constant internal contractAddr ; \r\n\r\n    DonatorInfo[] public donors;    \r\n    uint256[] public GCs;\r\n    uint256 itemCount = 0 ; \r\n    uint256 donationTime = block.timestamp;    \r\n\r\n    mapping(address => uint256) public donators; \r\n    mapping(address => uint256) public GC;\r\n    mapping(uint256 =>  Item) public items; //  ID     \r\n    mapping(address => uint256) public donationTimes; //    \r\n\r\n    event DONATION(address indexed donator, uint256 donation);\r\n    event CREATEGC(address indexed donator, uint256 GC);\r\n\r\n    constructor() {\r\n        address sender = msg.sender;\r\n        owner = payable(sender);\r\n    }\r\n\r\n    function donate() public payable {\r\n        //  0 ETH \r\n        require(msg.value > 0, 'You must send some ether to donate');\r\n        //   \r\n        donators[msg.sender] += msg.value;\r\n        //   \r\n        donationTimes[msg.sender] = donationTime;\r\n\r\n        //    , donors  \r\n        if(donators[msg.sender] == msg.value){\r\n            DonatorInfo memory d;\r\n            d.donator = owner;\r\n            d.donation = msg.value;\r\n            d.donatiotime = donationTime; //   \r\n            donors.push(d);\r\n        }\r\n\r\n        _totalDonations += msg.value;\r\n\r\n        emit DONATION(msg.sender, msg.value);\r\n    }\r\n\r\n    function getDonatorCount() public view returns (DonatorInfo[] memory) {\r\n        return donors;\r\n    }\r\n\r\n    //  &    \r\n    function getDonators(address donator) public view returns(uint256 result){\r\n        require(donators[donator] > 0, 'This account did not donate');\r\n        uint256 donation = donators[donator];\r\n        return donation ;\r\n    }\r\n\r\n    //   \r\n    function getDanatorTime(address donator) public view returns (uint256 result) {\r\n        return donationTimes[donator];\r\n    }\r\n\r\n    /** \r\n    * @dev    \r\n    * @return result donors \r\n    */\r\n    function getDonors() public view returns(uint256 result){\r\n        uint256 donorslen = donors.length;\r\n        return donorslen;\r\n    }\r\n\r\n    //     \r\n    function getTotalDonations() public view returns(uint256 result) {\r\n        return _totalDonations;\r\n    }\r\n\r\n    // GC \r\n    function createGC(address donator) public {\r\n        require(donators[donator] > 0 , \"You dont't receive GCOIN \");\r\n        uint256 giveGC = calcGC(donator);\r\n        GC[donator] += giveGC;\r\n        \r\n        emit CREATEGC(donator, giveGC);\r\n    }\r\n\r\n    //GC \r\n    function calcGC(address donator) internal view returns(uint256 result) {\r\n        uint256 donation = donators[donator];\r\n        uint256 dnGC = donation / 10**13;\r\n        return dnGC;\r\n    }\r\n\r\n    //GC \r\n    function getGC(address donator) external view returns (uint256 result){\r\n           require(GC[donator] > 0, \"You don't have GCOIN.\");\r\n           return GC[donator];\r\n    }\r\n\r\n    function createItem(uint256 itemPrice) public {\r\n       //     count 1  ->      \r\n       items[itemCount++] = Item(itemPrice, false);\r\n    }\r\n\r\n\r\n\r\n    //   \r\n    function buyItem(address donator, uint256 itemId) public {\r\n        require(GC[donator] > 0, \"You don't have GCOIN.\");\r\n    \r\n        //itemId    \r\n        Item storage item = items[itemId];\r\n\r\n        //  CG  \r\n        require(GC[donator] >= item.price, \"Not enough GC to buy this item\");\r\n\r\n        //  \r\n        deductBalance(donator, item.price);\r\n\r\n        // ->         true  false\r\n        item.purchased = true;\r\n        \r\n    }\r\n\r\n    //  \r\n    function deductBalance(address donator, uint256 amount) internal  {\r\n        GC[donator] -= amount;\r\n    }\r\n\r\n}",
  "sourcePath": "C:\\Users\\user\\Desktop\\bob project\\smart-contract\\contracts\\Test.sol",
  "compiler": {
    "name": "solc",
    "version": "0.8.9+commit.e5eed63a.Emscripten.clang"
  },
  "schemaVersion": "3.4.14",
  "updatedAt": "2023-08-01T15:22:58.141Z",
  "networkType": "ethereum",
  "devdoc": {
    "kind": "dev",
    "methods": {
      "getDonors()": {
        "details": "   ",
        "returns": {
          "result": "donors "
        }
      }
    },
    "version": 1
  },
  "userdoc": {
    "kind": "user",
    "methods": {},
    "version": 1
  }
}