{
  "contractName": "Test",
  "abi": [
    {
      "inputs": [],
      "stateMutability": "nonpayable",
      "type": "constructor"
    },
    {
      "anonymous": false,
      "inputs": [
        {
          "indexed": true,
          "internalType": "address",
          "name": "donator",
          "type": "address"
        },
        {
          "indexed": false,
          "internalType": "uint256",
          "name": "GC",
          "type": "uint256"
        }
      ],
      "name": "CREATEGC",
      "type": "event"
    },
    {
      "anonymous": false,
      "inputs": [
        {
          "indexed": true,
          "internalType": "address",
          "name": "donator",
          "type": "address"
        },
        {
          "indexed": false,
          "internalType": "uint256",
          "name": "donation",
          "type": "uint256"
        }
      ],
      "name": "DONATION",
      "type": "event"
    },
    {
      "inputs": [
        {
          "internalType": "address",
          "name": "",
          "type": "address"
        }
      ],
      "name": "GC",
      "outputs": [
        {
          "internalType": "uint256",
          "name": "",
          "type": "uint256"
        }
      ],
      "stateMutability": "view",
      "type": "function",
      "constant": true
    },
    {
      "inputs": [
        {
          "internalType": "uint256",
          "name": "",
          "type": "uint256"
        }
      ],
      "name": "GCs",
      "outputs": [
        {
          "internalType": "uint256",
          "name": "",
          "type": "uint256"
        }
      ],
      "stateMutability": "view",
      "type": "function",
      "constant": true
    },
    {
      "inputs": [
        {
          "internalType": "address",
          "name": "",
          "type": "address"
        }
      ],
      "name": "donators",
      "outputs": [
        {
          "internalType": "uint256",
          "name": "",
          "type": "uint256"
        }
      ],
      "stateMutability": "view",
      "type": "function",
      "constant": true
    },
    {
      "inputs": [
        {
          "internalType": "uint256",
          "name": "",
          "type": "uint256"
        }
      ],
      "name": "donors",
      "outputs": [
        {
          "internalType": "address payable",
          "name": "donator",
          "type": "address"
        },
        {
          "internalType": "uint256",
          "name": "donation",
          "type": "uint256"
        }
      ],
      "stateMutability": "view",
      "type": "function",
      "constant": true
    },
    {
      "inputs": [],
      "name": "donate",
      "outputs": [],
      "stateMutability": "payable",
      "type": "function",
      "payable": true
    },
    {
      "inputs": [
        {
          "internalType": "address",
          "name": "donator",
          "type": "address"
        }
      ],
      "name": "getDonators",
      "outputs": [
        {
          "internalType": "uint256",
          "name": "result",
          "type": "uint256"
        }
      ],
      "stateMutability": "view",
      "type": "function",
      "constant": true
    },
    {
      "inputs": [],
      "name": "getDonors",
      "outputs": [
        {
          "internalType": "uint256",
          "name": "result",
          "type": "uint256"
        }
      ],
      "stateMutability": "view",
      "type": "function",
      "constant": true
    },
    {
      "inputs": [],
      "name": "getTotalDonations",
      "outputs": [
        {
          "internalType": "uint256",
          "name": "result",
          "type": "uint256"
        }
      ],
      "stateMutability": "view",
      "type": "function",
      "constant": true
    },
    {
      "inputs": [
        {
          "internalType": "address",
          "name": "donator",
          "type": "address"
        }
      ],
      "name": "createGC",
      "outputs": [],
      "stateMutability": "nonpayable",
      "type": "function"
    },
    {
      "inputs": [
        {
          "internalType": "address",
          "name": "donator",
          "type": "address"
        }
      ],
      "name": "getGC",
      "outputs": [
        {
          "internalType": "uint256",
          "name": "result",
          "type": "uint256"
        }
      ],
      "stateMutability": "view",
      "type": "function",
      "constant": true
    }
  ],
  "bytecode": "0x608060405234801561001057600080fd5b506000339050806000806101000a81548173ffffffffffffffffffffffffffffffffffffffff021916908373ffffffffffffffffffffffffffffffffffffffff16021790555050610d50806100666000396000f3fe6080604052600436106100915760003560e01c8063a6841d0411610059578063a6841d0414610190578063cb2c741a146101cd578063d24f8cdd1461020a578063ed88c68e14610247578063febc71911461025157610091565b80630d47a279146100965780634abfa163146100d35780637096960814610111578063777c658f1461013a57806396f300d414610165575b600080fd5b3480156100a257600080fd5b506100bd60048036038101906100b89190610922565b61028e565b6040516100ca919061095e565b60405180910390f35b3480156100df57600080fd5b506100fa60048036038101906100f59190610922565b6102b2565b6040516101089291906109ba565b60405180910390f35b34801561011d57600080fd5b5061013860048036038101906101339190610a21565b610306565b005b34801561014657600080fd5b5061014f61043d565b60405161015c919061095e565b60405180910390f35b34801561017157600080fd5b5061017a610447565b604051610187919061095e565b60405180910390f35b34801561019c57600080fd5b506101b760048036038101906101b29190610a21565b610459565b6040516101c4919061095e565b60405180910390f35b3480156101d957600080fd5b506101f460048036038101906101ef9190610a21565b610529565b604051610201919061095e565b60405180910390f35b34801561021657600080fd5b50610231600480360381019061022c9190610a21565b6105f3565b60405161023e919061095e565b60405180910390f35b61024f61060b565b005b34801561025d57600080fd5b5061027860048036038101906102739190610a21565b61083f565b604051610285919061095e565b60405180910390f35b6003818154811061029e57600080fd5b906000526020600020016000915090505481565b600281815481106102c257600080fd5b90600052602060002090600202016000915090508060000160009054906101000a900473ffffffffffffffffffffffffffffffffffffffff16908060010154905082565b6000600460008373ffffffffffffffffffffffffffffffffffffffff1673ffffffffffffffffffffffffffffffffffffffff1681526020019081526020016000205411610388576040517f08c379a000000000000000000000000000000000000000000000000000000000815260040161037f90610aab565b60405180910390fd5b600061039382610857565b905080600560008473ffffffffffffffffffffffffffffffffffffffff1673ffffffffffffffffffffffffffffffffffffffff16815260200190815260200160002060008282546103e49190610afa565b925050819055508173ffffffffffffffffffffffffffffffffffffffff167fe84953d74eb42697c379a79176e65b465c6d5f9f08e6c1429ce3b22e7c07af7d82604051610431919061095e565b60405180910390a25050565b6000600154905090565b60008060028054905090508091505090565b600080600460008473ffffffffffffffffffffffffffffffffffffffff1673ffffffffffffffffffffffffffffffffffffffff16815260200190815260200160002054116104dc576040517f08c379a00000000000000000000000000000000000000000000000000000000081526004016104d390610b9c565b60405180910390fd5b6000600460008473ffffffffffffffffffffffffffffffffffffffff1673ffffffffffffffffffffffffffffffffffffffff16815260200190815260200160002054905080915050919050565b600080600560008473ffffffffffffffffffffffffffffffffffffffff1673ffffffffffffffffffffffffffffffffffffffff16815260200190815260200160002054116105ac576040517f08c379a00000000000000000000000000000000000000000000000000000000081526004016105a390610c08565b60405180910390fd5b600560008373ffffffffffffffffffffffffffffffffffffffff1673ffffffffffffffffffffffffffffffffffffffff168152602001908152602001600020549050919050565b60046020528060005260406000206000915090505481565b6000341161064e576040517f08c379a000000000000000000000000000000000000000000000000000000000815260040161064590610c9a565b60405180910390fd5b34600460003373ffffffffffffffffffffffffffffffffffffffff1673ffffffffffffffffffffffffffffffffffffffff168152602001908152602001600020600082825461069d9190610afa565b9250508190555034600460003373ffffffffffffffffffffffffffffffffffffffff1673ffffffffffffffffffffffffffffffffffffffff1681526020019081526020016000205414156107d6576106f36108b7565b60008054906101000a900473ffffffffffffffffffffffffffffffffffffffff16816000019073ffffffffffffffffffffffffffffffffffffffff16908173ffffffffffffffffffffffffffffffffffffffff168152505034816020018181525050600281908060018154018082558091505060019003906000526020600020906002020160009091909190915060008201518160000160006101000a81548173ffffffffffffffffffffffffffffffffffffffff021916908373ffffffffffffffffffffffffffffffffffffffff160217905550602082015181600101555050505b34600160008282546107e89190610afa565b925050819055503373ffffffffffffffffffffffffffffffffffffffff167f2d4c80fe532a63706e1e7f9411e327a7cf921da46b1d723c95d918e7262fc14834604051610835919061095e565b60405180910390a2565b60056020528060005260406000206000915090505481565b600080600460008473ffffffffffffffffffffffffffffffffffffffff1673ffffffffffffffffffffffffffffffffffffffff1681526020019081526020016000205490506000600a826108ab9190610ce9565b90508092505050919050565b6040518060400160405280600073ffffffffffffffffffffffffffffffffffffffff168152602001600081525090565b600080fd5b6000819050919050565b6108ff816108ec565b811461090a57600080fd5b50565b60008135905061091c816108f6565b92915050565b600060208284031215610938576109376108e7565b5b60006109468482850161090d565b91505092915050565b610958816108ec565b82525050565b6000602082019050610973600083018461094f565b92915050565b600073ffffffffffffffffffffffffffffffffffffffff82169050919050565b60006109a482610979565b9050919050565b6109b481610999565b82525050565b60006040820190506109cf60008301856109ab565b6109dc602083018461094f565b9392505050565b60006109ee82610979565b9050919050565b6109fe816109e3565b8114610a0957600080fd5b50565b600081359050610a1b816109f5565b92915050565b600060208284031215610a3757610a366108e7565b5b6000610a4584828501610a0c565b91505092915050565b600082825260208201905092915050565b7f596f7520646f6e74277420726563656976652047434f494e2000000000000000600082015250565b6000610a95601983610a4e565b9150610aa082610a5f565b602082019050919050565b60006020820190508181036000830152610ac481610a88565b9050919050565b7f4e487b7100000000000000000000000000000000000000000000000000000000600052601160045260246000fd5b6000610b05826108ec565b9150610b10836108ec565b9250827fffffffffffffffffffffffffffffffffffffffffffffffffffffffffffffffff03821115610b4557610b44610acb565b5b828201905092915050565b7f54686973206163636f756e7420646964206e6f7420646f6e6174650000000000600082015250565b6000610b86601b83610a4e565b9150610b9182610b50565b602082019050919050565b60006020820190508181036000830152610bb581610b79565b9050919050565b7f596f7520646f6e277420686176652047434f494e2e0000000000000000000000600082015250565b6000610bf2601583610a4e565b9150610bfd82610bbc565b602082019050919050565b60006020820190508181036000830152610c2181610be5565b9050919050565b7f596f75206d7573742073656e6420736f6d6520657468657220746f20646f6e6160008201527f7465000000000000000000000000000000000000000000000000000000000000602082015250565b6000610c84602283610a4e565b9150610c8f82610c28565b604082019050919050565b60006020820190508181036000830152610cb381610c77565b9050919050565b7f4e487b7100000000000000000000000000000000000000000000000000000000600052601260045260246000fd5b6000610cf4826108ec565b9150610cff836108ec565b925082610d0f57610d0e610cba565b5b82820490509291505056fea2646970667358221220fbfd0367a88bd734b70aca2ef452f50029c063de07f3a0ac86e03943bf48f25e64736f6c63430008090033",
  "immutableReferences": {},
  "source": " // SPDX-License-Identifier: MIT\r\npragma solidity ^0.8.9;\r\n\r\ncontract Test{\r\n    struct DonatorInfo{\r\n        address payable donator;    // \r\n        uint256 donation;   // \r\n    }\r\n\r\n    address payable owner;\r\n    uint256 private _totalDonations;\r\n    // address constant internal contractAddr ; \r\n\r\n    DonatorInfo[] public donors;    \r\n    uint256[] public GCs;\r\n    mapping(address => uint256) public donators;\r\n    mapping(address => uint256) public GC;\r\n\r\n    event DONATION(address indexed donator, uint256 donation);\r\n    event CREATEGC(address indexed donator, uint256 GC);\r\n\r\n    constructor() {\r\n        address sender = msg.sender;\r\n        owner = payable(sender);\r\n    }\r\n\r\n    function donate() public payable {\r\n        //  0 ETH \r\n        require(msg.value > 0, 'You must send some ether to donate');\r\n        //   \r\n        donators[msg.sender] += msg.value;\r\n        //    , donors  \r\n        if(donators[msg.sender] == msg.value){\r\n            DonatorInfo memory d;\r\n            d.donator = owner;\r\n            d.donation = msg.value;\r\n            donors.push(d);\r\n        }\r\n\r\n        _totalDonations += msg.value;\r\n\r\n        emit DONATION(msg.sender, msg.value);\r\n    }\r\n\r\n    function getDonators(address donator) public view returns(uint256 result){\r\n        require(donators[donator] > 0, 'This account did not donate');\r\n        uint256 donation = donators[donator];\r\n        return donation;\r\n    }\r\n\r\n    /** \r\n    * @dev    \r\n    * @return result donors \r\n    */\r\n    function getDonors() public view returns(uint256 result){\r\n        uint256 donorslen = donors.length;\r\n        return donorslen;\r\n    }\r\n\r\n    function getTotalDonations() public view returns(uint256 result) {\r\n        return _totalDonations;\r\n    }\r\n\r\n    function createGC(address donator) public {\r\n        require(donators[donator] > 0 , \"You dont't receive GCOIN \");\r\n        uint256 giveGC = calcGC(donator);\r\n        GC[donator] += giveGC;\r\n        \r\n        emit CREATEGC(donator, giveGC);\r\n    }\r\n\r\n    function calcGC(address donator) internal view returns(uint256 result) {\r\n        uint256 donation = donators[donator];\r\n        uint256 dnGC = donation / 10;\r\n        return dnGC;\r\n    }\r\n\r\n    function getGC(address donator) external view returns (uint256 result){\r\n           require(GC[donator] > 0, \"You don't have GCOIN.\");\r\n           return GC[donator];\r\n    }\r\n}",
  "sourcePath": "C:\\Users\\user\\Desktop\\bob project\\smart-contract\\contracts\\Test.sol",
  "compiler": {
    "name": "solc",
    "version": "0.8.9+commit.e5eed63a.Emscripten.clang"
  },
  "schemaVersion": "3.4.14",
  "updatedAt": "2023-07-31T14:51:31.745Z",
  "networkType": "ethereum",
  "devdoc": {
    "kind": "dev",
    "methods": {
      "getDonors()": {
        "details": "   ",
        "returns": {
          "result": "donors "
        }
      }
    },
    "version": 1
  },
  "userdoc": {
    "kind": "user",
    "methods": {},
    "version": 1
  }
}