{
  "contractName": "DonationAndCustomization",
  "abi": [
    {
      "constant": true,
      "inputs": [
        {
          "name": "",
          "type": "uint256"
        }
      ],
      "name": "donors",
      "outputs": [
        {
          "name": "",
          "type": "address"
        }
      ],
      "payable": false,
      "stateMutability": "view",
      "type": "function",
      "signature": "0x4abfa163"
    },
    {
      "constant": true,
      "inputs": [
        {
          "name": "",
          "type": "address"
        }
      ],
      "name": "balanceOf",
      "outputs": [
        {
          "name": "",
          "type": "uint256"
        }
      ],
      "payable": false,
      "stateMutability": "view",
      "type": "function",
      "signature": "0x70a08231"
    },
    {
      "constant": true,
      "inputs": [
        {
          "name": "",
          "type": "address"
        }
      ],
      "name": "characters",
      "outputs": [
        {
          "name": "name",
          "type": "string"
        },
        {
          "name": "clothes",
          "type": "uint256"
        },
        {
          "name": "accessory",
          "type": "uint256"
        }
      ],
      "payable": false,
      "stateMutability": "view",
      "type": "function",
      "signature": "0x97c2114f"
    },
    {
      "constant": true,
      "inputs": [
        {
          "name": "",
          "type": "address"
        }
      ],
      "name": "donations",
      "outputs": [
        {
          "name": "",
          "type": "uint256"
        }
      ],
      "payable": false,
      "stateMutability": "view",
      "type": "function",
      "signature": "0xcc6cb19a"
    },
    {
      "constant": true,
      "inputs": [
        {
          "name": "",
          "type": "address"
        },
        {
          "name": "",
          "type": "address"
        }
      ],
      "name": "allowance",
      "outputs": [
        {
          "name": "",
          "type": "uint256"
        }
      ],
      "payable": false,
      "stateMutability": "view",
      "type": "function",
      "signature": "0xdd62ed3e"
    },
    {
      "anonymous": false,
      "inputs": [
        {
          "indexed": true,
          "name": "donor",
          "type": "address"
        },
        {
          "indexed": false,
          "name": "amount",
          "type": "uint256"
        }
      ],
      "name": "DonationReceived",
      "type": "event",
      "signature": "0x264f630d9efa0d07053a31163641d9fcc0adafc9d9e76f1c37c2ce3a558d2c52"
    },
    {
      "anonymous": false,
      "inputs": [
        {
          "indexed": true,
          "name": "owner",
          "type": "address"
        },
        {
          "indexed": false,
          "name": "name",
          "type": "string"
        },
        {
          "indexed": false,
          "name": "clothes",
          "type": "uint256"
        },
        {
          "indexed": false,
          "name": "accessory",
          "type": "uint256"
        }
      ],
      "name": "CharacterCustomized",
      "type": "event",
      "signature": "0x0fa70e7a5dc76261b5035f698cff8f1eec8f79a2de4bcb75612e67ebde5e5d0d"
    },
    {
      "anonymous": false,
      "inputs": [
        {
          "indexed": true,
          "name": "from",
          "type": "address"
        },
        {
          "indexed": true,
          "name": "to",
          "type": "address"
        },
        {
          "indexed": false,
          "name": "value",
          "type": "uint256"
        }
      ],
      "name": "Transfer",
      "type": "event",
      "signature": "0xddf252ad1be2c89b69c2b068fc378daa952ba7f163c4a11628f55a4df523b3ef"
    },
    {
      "anonymous": false,
      "inputs": [
        {
          "indexed": true,
          "name": "owner",
          "type": "address"
        },
        {
          "indexed": true,
          "name": "spender",
          "type": "address"
        },
        {
          "indexed": false,
          "name": "value",
          "type": "uint256"
        }
      ],
      "name": "Approval",
      "type": "event",
      "signature": "0x8c5be1e5ebec7d5bd14f71427d1e84f3dd0314c0f7b2291e5b200ac8c7c3b925"
    },
    {
      "constant": false,
      "inputs": [],
      "name": "donate",
      "outputs": [],
      "payable": true,
      "stateMutability": "payable",
      "type": "function",
      "signature": "0xed88c68e"
    },
    {
      "constant": false,
      "inputs": [
        {
          "name": "name",
          "type": "string"
        },
        {
          "name": "clothes",
          "type": "uint256"
        },
        {
          "name": "accessory",
          "type": "uint256"
        }
      ],
      "name": "customizeCharacter",
      "outputs": [],
      "payable": false,
      "stateMutability": "nonpayable",
      "type": "function",
      "signature": "0xa95938e6"
    },
    {
      "constant": false,
      "inputs": [
        {
          "name": "_spender",
          "type": "address"
        },
        {
          "name": "_value",
          "type": "uint256"
        }
      ],
      "name": "approve",
      "outputs": [
        {
          "name": "success",
          "type": "bool"
        }
      ],
      "payable": false,
      "stateMutability": "nonpayable",
      "type": "function",
      "signature": "0x095ea7b3"
    },
    {
      "constant": false,
      "inputs": [
        {
          "name": "_from",
          "type": "address"
        },
        {
          "name": "_to",
          "type": "address"
        },
        {
          "name": "_value",
          "type": "uint256"
        }
      ],
      "name": "transferFrom",
      "outputs": [
        {
          "name": "success",
          "type": "bool"
        }
      ],
      "payable": false,
      "stateMutability": "nonpayable",
      "type": "function",
      "signature": "0x23b872dd"
    }
  ],
  "bytecode": "0x608060405234801561001057600080fd5b50611089806100206000396000f3fe608060405260043610610099576000357c0100000000000000000000000000000000000000000000000000000000900463ffffffff168063095ea7b31461009e57806323b872dd146101115780634abfa163146101a457806370a082311461021f57806397c2114f14610284578063a95938e61461035c578063cc6cb19a14610438578063dd62ed3e1461049d578063ed88c68e14610522575b600080fd5b3480156100aa57600080fd5b506100f7600480360360408110156100c157600080fd5b81019080803573ffffffffffffffffffffffffffffffffffffffff1690602001909291908035906020019092919050505061052c565b604051808215151515815260200191505060405180910390f35b34801561011d57600080fd5b5061018a6004803603606081101561013457600080fd5b81019080803573ffffffffffffffffffffffffffffffffffffffff169060200190929190803573ffffffffffffffffffffffffffffffffffffffff1690602001909291908035906020019092919050505061061e565b604051808215151515815260200191505060405180910390f35b3480156101b057600080fd5b506101dd600480360360208110156101c757600080fd5b81019080803590602001909291905050506109c6565b604051808273ffffffffffffffffffffffffffffffffffffffff1673ffffffffffffffffffffffffffffffffffffffff16815260200191505060405180910390f35b34801561022b57600080fd5b5061026e6004803603602081101561024257600080fd5b81019080803573ffffffffffffffffffffffffffffffffffffffff169060200190929190505050610a04565b6040518082815260200191505060405180910390f35b34801561029057600080fd5b506102d3600480360360208110156102a757600080fd5b81019080803573ffffffffffffffffffffffffffffffffffffffff169060200190929190505050610a1c565b6040518080602001848152602001838152602001828103825285818151815260200191508051906020019080838360005b8381101561031f578082015181840152602081019050610304565b50505050905090810190601f16801561034c5780820380516001836020036101000a031916815260200191505b5094505050505060405180910390f35b34801561036857600080fd5b506104366004803603606081101561037f57600080fd5b810190808035906020019064010000000081111561039c57600080fd5b8201836020820111156103ae57600080fd5b803590602001918460018302840111640100000000831117156103d057600080fd5b91908080601f016020809104026020016040519081016040528093929190818152602001838380828437600081840152601f19601f8201169050808301925050505050505091929192908035906020019092919080359060200190929190505050610ade565b005b34801561044457600080fd5b506104876004803603602081101561045b57600080fd5b81019080803573ffffffffffffffffffffffffffffffffffffffff169060200190929190505050610d71565b6040518082815260200191505060405180910390f35b3480156104a957600080fd5b5061050c600480360360408110156104c057600080fd5b81019080803573ffffffffffffffffffffffffffffffffffffffff169060200190929190803573ffffffffffffffffffffffffffffffffffffffff169060200190929190505050610d89565b6040518082815260200191505060405180910390f35b61052a610dae565b005b600081600360003373ffffffffffffffffffffffffffffffffffffffff1673ffffffffffffffffffffffffffffffffffffffff16815260200190815260200160002060008573ffffffffffffffffffffffffffffffffffffffff1673ffffffffffffffffffffffffffffffffffffffff168152602001908152602001600020819055508273ffffffffffffffffffffffffffffffffffffffff163373ffffffffffffffffffffffffffffffffffffffff167f8c5be1e5ebec7d5bd14f71427d1e84f3dd0314c0f7b2291e5b200ac8c7c3b925846040518082815260200191505060405180910390a36001905092915050565b60008073ffffffffffffffffffffffffffffffffffffffff168373ffffffffffffffffffffffffffffffffffffffff16141515156106c4576040517f08c379a000000000000000000000000000000000000000000000000000000000815260040180806020018281038252600f8152602001807f496e76616c69642061646472657373000000000000000000000000000000000081525060200191505060405180910390fd5b81600260008673ffffffffffffffffffffffffffffffffffffffff1673ffffffffffffffffffffffffffffffffffffffff168152602001908152602001600020541015151561077b576040517f08c379a00000000000000000000000000000000000000000000000000000000081526004018080602001828103825260148152602001807f496e73756666696369656e742062616c616e636500000000000000000000000081525060200191505060405180910390fd5b81600360008673ffffffffffffffffffffffffffffffffffffffff1673ffffffffffffffffffffffffffffffffffffffff16815260200190815260200160002060003373ffffffffffffffffffffffffffffffffffffffff1673ffffffffffffffffffffffffffffffffffffffff168152602001908152602001600020541015151561086f576040517f08c379a00000000000000000000000000000000000000000000000000000000081526004018080602001828103825260208152602001807f4e6f7420616c6c6f77656420746f207370656e64207468697320616d6f756e7481525060200191505060405180910390fd5b81600260008673ffffffffffffffffffffffffffffffffffffffff1673ffffffffffffffffffffffffffffffffffffffff1681526020019081526020016000206000828254039250508190555081600260008573ffffffffffffffffffffffffffffffffffffffff1673ffffffffffffffffffffffffffffffffffffffff1681526020019081526020016000206000828254019250508190555081600160008673ffffffffffffffffffffffffffffffffffffffff1673ffffffffffffffffffffffffffffffffffffffff168152602001908152602001600020600082825401925050819055508273ffffffffffffffffffffffffffffffffffffffff168473ffffffffffffffffffffffffffffffffffffffff167fddf252ad1be2c89b69c2b068fc378daa952ba7f163c4a11628f55a4df523b3ef846040518082815260200191505060405180910390a3600190509392505050565b6000818154811015156109d557fe5b906000526020600020016000915054906101000a900473ffffffffffffffffffffffffffffffffffffffff1681565b60026020528060005260406000206000915090505481565b6004602052806000526040600020600091509050806000018054600181600116156101000203166002900480601f016020809104026020016040519081016040528092919081815260200182805460018160011615610100020316600290048015610ac85780601f10610a9d57610100808354040283529160200191610ac8565b820191906000526020600020905b815481529060010190602001808311610aab57829003601f168201915b5050505050908060010154908060020154905083565b610ae88282610f97565b600160003373ffffffffffffffffffffffffffffffffffffffff1673ffffffffffffffffffffffffffffffffffffffff1681526020019081526020016000205410151515610bc4576040517f08c379a00000000000000000000000000000000000000000000000000000000081526004018080602001828103825260328152602001807f496e73756666696369656e7420646f6e6174696f6e20746f20637573746f6d6981526020017f7a6520796f7572206368617261637465722e000000000000000000000000000081525060400191505060405180910390fd5b60606040519081016040528084815260200183815260200182815250600460003373ffffffffffffffffffffffffffffffffffffffff1673ffffffffffffffffffffffffffffffffffffffff1681526020019081526020016000206000820151816000019080519060200190610c3b929190610fb8565b506020820151816001015560408201518160020155905050610c5d8282610f97565b600160003373ffffffffffffffffffffffffffffffffffffffff1673ffffffffffffffffffffffffffffffffffffffff168152602001908152602001600020600082825403925050819055503373ffffffffffffffffffffffffffffffffffffffff167f0fa70e7a5dc76261b5035f698cff8f1eec8f79a2de4bcb75612e67ebde5e5d0d8484846040518080602001848152602001838152602001828103825285818151815260200191508051906020019080838360005b83811015610d30578082015181840152602081019050610d15565b50505050905090810190601f168015610d5d5780820380516001836020036101000a031916815260200191505b5094505050505060405180910390a2505050565b60016020528060005260406000206000915090505481565b6003602052816000526040600020602052806000526040600020600091509150505481565b600034111515610e4c576040517f08c379a00000000000000000000000000000000000000000000000000000000081526004018080602001828103825260228152602001807f596f75206d7573742073656e6420736f6d6520657468657220746f20646f6e6181526020017f746500000000000000000000000000000000000000000000000000000000000081525060400191505060405180910390fd5b34600160003373ffffffffffffffffffffffffffffffffffffffff1673ffffffffffffffffffffffffffffffffffffffff1681526020019081526020016000206000828254019250508190555034600160003373ffffffffffffffffffffffffffffffffffffffff1673ffffffffffffffffffffffffffffffffffffffff168152602001908152602001600020541415610f475760003390806001815401808255809150509060018203906000526020600020016000909192909190916101000a81548173ffffffffffffffffffffffffffffffffffffffff021916908373ffffffffffffffffffffffffffffffffffffffff160217905550505b3373ffffffffffffffffffffffffffffffffffffffff167f264f630d9efa0d07053a31163641d9fcc0adafc9d9e76f1c37c2ce3a558d2c52346040518082815260200191505060405180910390a2565b6000670de0b6b3a76400008202670de0b6b3a7640000840201905092915050565b828054600181600116156101000203166002900490600052602060002090601f016020900481019282601f10610ff957805160ff1916838001178555611027565b82800160010185558215611027579182015b8281111561102657825182559160200191906001019061100b565b5b5090506110349190611038565b5090565b61105a91905b8082111561105657600081600090555060010161103e565b5090565b9056fea165627a7a723058200e79908d208ec273c05fb2f2505286d75359ec4fc8e4c2ce05ddfe14db4e44c30029",
  "source": "// SPDX-License-Identifier: MIT\r\npragma solidity >=0.4.22 <0.9.0;\r\n\r\ncontract DonationAndCustomization {\r\n    // 기부 이벤트 선언\r\n    event DonationReceived(address indexed donor, uint256 amount);\r\n\r\n    // 캐릭터 커스터마이징 함수를 호출할 때 발생하는 이벤트를 선언합니다.\r\n    event CharacterCustomized(address indexed owner, string name, uint256 clothes, uint accessory);\r\n\r\n    // ERC-20 토큰의 Transfer 이벤트를 선언합니다.\r\n    event Transfer(address indexed from, address indexed to, uint256 value);\r\n\r\n    // ERC-20 토큰의 Approval 이벤트를 선언합니다.\r\n    event Approval(address indexed owner, address indexed spender, uint256 value);\r\n\r\n    // 기부자를 저장하기 위한 배열 선언\r\n    address[] public donors;\r\n\r\n    // 기부자의 기부금을 저장하기 위한 매핑 선언\r\n    mapping(address => uint256) public donations;\r\n\r\n    //토큰의 승인 전송을 위한 매핑\r\n    mapping(address => uint256) public balanceOf;\r\n    mapping(address => mapping(address => uint256)) public allowance;\r\n\r\n    //캐릭터 정보를 저장하기 위한 구조체를 정의\r\n    struct Character {\r\n        string name;\r\n        uint256 clothes;\r\n        uint256 accessory;\r\n        \r\n    }\r\n\r\n    // 매핑을 사용해서 각 주소에 해당하는 캐릭터 정보를 저장.\r\n    mapping(address => Character) public characters;\r\n\r\n    //기부를 처리하는 함수를 정의\r\n    function donate() public payable {\r\n        // 기부자가 0 이상의 이더를 기부해야 함.\r\n        require(msg.value > 0 , \"You must send some ether to donate\");\r\n\r\n        // 기부자의 기부금을 업데이트\r\n        donations[msg.sender] += msg.value;\r\n\r\n        // 기부자가 처음 기부한 경우, donors 배열에 추가\r\n        if(donations[msg.sender] == msg.value) {\r\n            donors.push(msg.sender);\r\n        }\r\n\r\n        //기부 이벤트 발생\r\n        emit DonationReceived(msg.sender, msg.value);\r\n    }\r\n\r\n    // 캐릭터를 커스터마이징하는 함수 정의\r\n    function customizeCharacter (\r\n        string memory name,\r\n        uint256 clothes,\r\n        uint256 accessory\r\n        \r\n    ) public {\r\n        // 기부자의 기부금이 커스터마이징 비용울 충분히 충당하는지 검증\r\n        require(donations[msg.sender] >= computeCustomizationCost(clothes, accessory), \"Insufficient donation to customize your character.\");\r\n\r\n        //캐릭터 정보 업데이트\r\n        characters[msg.sender] =Character(name, clothes, accessory);\r\n\r\n        // 커스터마이징 이후 기부금을 초기화\r\n        donations[msg.sender] -= computeCustomizationCost(clothes, accessory);\r\n\r\n        // 캐릭터 커스터마이징 이벤트를 발생시킴\r\n         emit CharacterCustomized(msg.sender, name, clothes, accessory);\r\n    }\r\n\r\n    // 캐릭터 커스터마이징 비용을 계산하는 함수를 정의합니다.\r\n    function computeCustomizationCost(\r\n        uint256 clothes,\r\n        uint256 accessory\r\n    ) internal pure returns (uint256) {\r\n        \r\n        return clothes * 1 ether +  accessory * 1 ether;\r\n    }\r\n\r\n    // ERC-20 토큰의 승인 기능을 구현합니다.\r\n    function approve(address _spender, uint256 _value) public returns (bool success) {\r\n        allowance[msg.sender][_spender] = _value;\r\n        emit Approval(msg.sender, _spender, _value);\r\n        return true;\r\n    }\r\n\r\n    // ERC-20 토큰의 전송 기능을 확장하여 토큰 전송 시 기부금을 기부자에게 추가로 지급\r\n    function transferFrom(\r\n        address _from,\r\n        address _to,\r\n        uint256 _value\r\n    ) public returns (bool success) {\r\n        require(_to != address(0), \"Invalid address\");\r\n        require(balanceOf[_from] >= _value, \"Insufficient balance\");\r\n        require(allowance[_from][msg.sender] >= _value, \"Not allowed to spend this amount\");\r\n\r\n        balanceOf[_from] -= _value;\r\n        balanceOf[_to] += _value;\r\n\r\n        // 기부자에게 추가로 지급\r\n        donations[_from] += _value;\r\n\r\n        emit Transfer(_from, _to, _value);\r\n        return true;\r\n    }\r\n}",
  "sourcePath": "C:/Users/user/Desktop/bob project/contracts/Donation.sol",
  "compiler": {
    "name": "solc",
    "version": "0.5.0+commit.1d4f565a.Emscripten.clang"
  },
  "schemaVersion": "3.0.1",
  "updatedAt": "2023-07-31T04:21:54.403Z",
  "devdoc": {
    "methods": {}
  },
  "userdoc": {
    "methods": {}
  }
}